:1000000000800020BD010000F9200000BD2000009C
:10001000BD200000BD200000BD200000BD2000006C
:10002000BD200000BD200000BD200000F920000020
:10003000F9200000BD200000F9200000AD200000E4
:10004000F9200000F9200000F9200000F92000004C
:10005000F9200000F9200000F9200000F92000003C
:10006000F9200000F9200000F9200000F92000002C
:10007000F9200000F9200000F9200000F92000001C
:10008000F9200000F9200000F9200000F92000000C
:10009000F9200000F9200000F9200000F9200000FC
:1000A000F9200000F9200000F9200000F9200000EC
:1000B000F9200000F9200000F9200000F9200000DC
:1000C000F9200000F9200000F9200000F9200000CC
:1000D000F9200000F9200000F9200000F9200000BC
:1000E000F9200000F9200000F9200000F9200000AC
:1000F000F9200000F5370000F9200000593F00000A
:10010000F9200000D5440000F9200000F92000008B
:10011000F9200000F9200000F9200000F92000007B
:10012000F9200000F9200000F9200000F92000006B
:10013000F9200000F9200000F9200000F92000005B
:10014000F9200000F9200000F9200000F92000004B
:10015000F9200000F9200000F9200000F92000003B
:10016000F920000059250000F9200000F9200000C6
:10017000F9200000F9200000F9200000F92000001B
:10018000F9200000F9200000F9200000F92000000B
:10019000F9200000F9200000F9200000F9200000FB
:1001A000F9200000F9200000F9200000F9200000EB
:1001B000F9200000F9200000F9200000574B4CF214
:1001C000205210B51A804DF628121A8000BF00BFC9
:1001D00001F096FF524B4FF010621A60514A9A603C
:1001E000514ADA60A3F53043203B1A6812F480725A
:1001F00004D14E490A604FF4A8521A604C4B1A7849
:10020000110703D51A7842F008021A70494B4A4C7C
:100210004A482A221A704A4A00239918A14203D256
:10022000195899500433F8E7464B474900228B424E
:1002300002D243F8042BFAE74448454900235A58B0
:100240001A500433B3F5DE7FF9D1424B424A802184
:1002500003F8011B9342FBD1404B3C4A1A60404BD0
:100260008A221A70A3F5805324225A70A0221A7091
:100270009A799207FCD59A79D406FCD4394A9379B5
:1002800003F00C03082B374BF9D103221A714022DB
:100290005A719A799006FCD5324A9179314B4906C8
:1002A000FBD5314A314911600221516020221A7078
:1002B0009A7902F00C020C2AFAD12D4B2D4A1A60C1
:1002C0002D4B2E4A1A6000225A60072243F8042C54
:1002D0002B4AC3F80C2D62B601F0FEFF134B1B68CE
:1002E000DA0705D5274801F03BFF274B274A1A605C
:1002F000274B1B785B0609D5234C244A236893427D
:1003000004D1204801F02CFF0023236004F090FB6F
:1003100001F0FCFE02F084FEFEE700BF0E20054067
:1003200030800440823F04000100002B14D00340C1
:1003300002D0074000E007405C90FF1F74590000A6
:100340006087FF1F6090FF1FA896FF1F0082FF1F9E
:100350000000000000E400E05FE400E008ED00E0E1
:100360000050064000400640448004400000030165
:1003700004800440C010050014E000E0FF76010096
:10038000000020201A377D041CE00340A5C3945AC6
:1003900000F00740FFFFFFFFFFFFFFFFFFFFFFFF32
:1003A000FFFFFFFFFFFFFFFFFFFFFFFFFFFFFFFF5D
:1003B000FFFFFFFFFFFFFFFFFFFFFFFFFFFFFFFF4D
:1003C000FFFFFFFFFFFFFFFFFFFFFFFFFFFFFFFF3D
:1003D000FFFFFFFFFFFFFFFFFFFFFFFFFFFFFFFF2D
:1003E000FFFFFFFFFFFFFFFFFFFFFFFFFFFFFFFF1D
:1003F000FFFFFFFFFFFFFFFFFFFFFFFFFFFFFFFF0D
:10040000FFFFFFFFFFFFFFFFFFFFFFFFDEF9FFFF23
:1004100010B5054C237833B9044B13B10448AFF33E
:1004200000800123237010BD6090FF1F00000000BA
:100430007459000008B5064B1BB106480649AFF3D6
:1004400000800648036813B1054B03B1984708BD07
:1004500000000000745900006490FF1F5C90FF1FB3
:100460000000000010B5044600F0E0F8204610BD82
:1004700008B5034801F03AFD024B187008BD00BFF3
:10048000D090FF1F7C90FF1F10B5074C2046074BF4
:10049000197802F02DFE204602F0DEFD42F21070C7
:1004A00001F004FF10BD00BF8894FF1F7C90FF1F68
:1004B00010B50C48122101F065FD0B48032101F035
:1004C000E9FC0A480521112201F0EEFC084C204607
:1004D0000A2101F0F9FC20460649074A04F098FA7F
:1004E00010BD00BF8890FF1F8090FF1FA890FF1FC6
:1004F000D090FF1F650400006087FF1F10B582B019
:1005000002AB03F8011D0268546819460122A04796
:1005100002B010BD10B50446C3691BB901230371B5
:10052000002010BD00201871E06992B201F020F99E
:10053000E3691B7913B101232371002010BD00BFB3
:1005400000B583B0C06960B10DF10701012200F070
:10055000A7FE01280CBF9DF807004FF6FF7000B200
:1005600001E04FF0FF3003B05DF804FB30B583B01D
:100570000446C06978B10DF10701012200F090FE38
:1005800001280AD19DF80750E069C168013900F0DF
:1005900043FF284603E0002001E04FF0FF3003B0A6
:1005A00030BD00BF08B5C06908B100F06DFF08BDDF
:1005B0002DE9F04104460E469046002303714FF4A6
:1005C0007A7282600373114B0360242004F058FA9E
:1005D000E061B8B13546074606F1200E3E46286870
:1005E0006968AA68EB680FC6103537467545F5D1BE
:1005F0002868306004F10D0041460C2204F022FE10
:10060000002363762046BDE8F08100BFE05500007E
:10061000002202714FF47A71816002730249016015
:10062000C2614273704700BFE0550000014B036098
:10063000704700BFE0550000C3690BB1D868704730
:100640004FF0FF30704700BFC3690BB19869704726
:100650000020704738B50446C36963B1FFF7F4FF63
:1006600005462046FFF7E8FF281A47F6FF73984231
:1006700028BF184638BD002038BD00BFC36923B16C
:100680009879003018BF012070470020704700BFE4
:1006900038B504460A46012100F0B4FAB0B104F1BD
:1006A000100528462146012201F010FB28B92846F2
:1006B0002146002201F00AFB50B104F1380029461E
:1006C00000F0C4FD003018BF012038BD002038BD47
:1006D000002038BD2DE9F04F99B081469346019333
:1006E00000238DF81C30394A06928DF81E308DF8A3
:1006F00040300F928DF8423006A8103100F0A6FD70
:100700005C460FAE06AD4FF02F084FF0000A2CE00C
:1007100023782F2B01D1013427E03F1BFFB20C2F90
:1007200028BF0C2702A821463A4604F08BFD18ABDF
:100730003B4403F858AC304600F0D2FE3046294620
:1007400002AA012300F07EFF40B9002389F804309B
:100750001E4AC9F8002089F8063032E03C44284699
:1007600000F0BEFE2B4635461E462046414604F0AC
:10077000BFFC07460028CBD1CBEB0404019B1C60D7
:100780002B7989F80430114BC9F800306B7989F85E
:100790000530AB7989F80630AB68C9F80830EB68EA
:1007A000C9F80C302B69C9F810302B7D89F814304A
:1007B000AB69C9F81830EB69C9F81C302B6AC9F865
:1007C0002030484619B0BDE8F08F00BF0856000041
:1007D000F0B5A7B0044615461F4602A801ABFFF7C7
:1007E00079FF01996E18695C19BB9DF80C308DF882
:1007F0005430344B14939DF80D308DF855309DF8DE
:100800000E308DF85630049B1693059B1793069B6C
:1008100018939DF81C308DF86430089B1A93099B3F
:100820001B930A9B1C93204614A9274AFFF7C0FE7E
:1008300045E000218DF83010224B0B938DF83210DB
:100840009DF80E301BB92046FFF7E2FE37E00BA8FB
:1008500002A932463B4600F0F5FE18B92046FFF7E4
:10086000D7FE2CE002A800F03BFE17F0060F03D0E5
:100870000BA8119900F0D0FD9DF830308DF878303C
:10088000104B1D939DF831308DF879309DF8323042
:100890008DF87A300D9B1F930E9B20930F9B219315
:1008A0009DF840308DF88830119B2393129B249340
:1008B000139B259320461DA93246FFF779FE20465B
:1008C00027B0F0BD08560000F8550000084B002284
:1008D0005A719A719A721A730221196183F8302041
:1008E00083F83C200349996383F83E20704700BF9A
:1008F000FC90FF1F08560000084B1A6842F4806203
:100900001A604FF00042DA62FF225A631A46D36A35
:10091000002BFCDA014B986BC0B2704700C002405C
:1009200010B50446164A174B1A6010F0010F02D09A
:10093000FFF7E2FF013C052C04D9032100231148F5
:10094000114A02E06108F9D104E04263023C01333C
:100950008B42FADB4CB10B4A0B48D36A13F0F00F11
:10096000FBD05063936B023CF7D1002907DD054AA9
:10097000D36A13F0F00FFBD0936B0139F8D110BD9F
:1009800000041F8000C00240FFFF0090064B1A6861
:1009900042F480621A604FF00042DA6258631A46ED
:1009A000D36A002BFCDA704700C0024008B5052866
:1009B0001ED8DFE800F003080D1115194FF038427A
:1009C0000E4B1A6017E04FF038420C4B1A6012E0E1
:1009D0000B4A0A4B1A600EE00A4A084B1A600AE0FA
:1009E000094A064B1A6006E0084A044B1A6002E006
:1009F000074A024B1A6001F003FA08BD5C91FF1F21
:100A000000000138011001380320003803200138AC
:100A10000650003808B50079012101F0B1FB114BF7
:100A20001B78F3B100220F4B1A700F4B1B78C3B128
:100A300013F0010F03D00D4B1A680D4B1A600A4BCF
:100A40001B7813F0020F03D0084B5A68094B1A6049
:100A5000054B1B7813F0040F03D0044B9A68064B28
:100A60001A6008BD6091FF1F8C93FF1F8093FF1FCA
:100A700000E100E004E100E008E100E010B5244BF3
:100A80001B78002B3ED10122214B1A70214B1A6892
:100A9000214B1B78002B28D072B61F4B1B7813F00C
:100AA000010F07D01D4B1C681D49096821401D4CD2
:100AB00021601960184B1B7813F0020F07D01A4BF6
:100AC0001C68174949682140164C61601960124B37
:100AD0001B7813F0040F07D0144B1C681049896869
:100AE0002140104CA160196062B6114BDB68934243
:100AF00008D00F4B0F491960DA6042F080421A614A
:100B00000D4A1A600079002101F03AFB10BD00BFC8
:100B10006091FF1F5C91FF1F8C93FF1F80E100E03D
:100B20007493FF1F8093FF1F84E100E088E100E0E1
:100B300000C0024001401F0000001F8038B504467D
:100B400083797BB1008940F20123984205D840F2B5
:100B50000225281AFFF7E4FE25812046FFF75AFFF9
:100B60000023A37138BD00BF70B582B00E460B4B99
:100B70001B680093009C094DA4B2FFF7BDFEFF283F
:100B800007D02B680193019B9BB21B1BB342F4DB84
:100B900001E0012000E0002002B070BD9093FF1F33
:100BA000F8B505460F461646FFF7C8FF2846FFF77B
:100BB00065FF28464FF49671FFF7D6FF47F04000D7
:100BC000FFF7E4FE182426FA04F0C0B2FFF7DEFEB9
:100BD000083C14F1080FF6D127B1082F0CBF87206D
:100BE000FF2000E09520FFF7D1FE0024FFF784FEF0
:100BF000E87210F0800F03D00134B4F5807FF5D196
:100C0000F8BD00BF2DE9F04F87B0044601910023E5
:100C100003738372837143710271854B1B68039365
:100C2000039FBFB21046012101F0AAFA20790121E9
:100C300001F0CAFA2079012101F0A2FA7D4B1A686D
:100C400042F480521A600620FFF7B0FE7A4B1A6811
:100C50007A4B1B78002B28D072B6784B1B7813F098
:100C6000010F07D0764B186876490968014076482D
:100C700001601960714B1B7813F0020F07D0734BA2
:100C800018687049496801406F48416019606B4BB2
:100C90001B7813F0040F07D06D4B186869498968F9
:100CA000014069488160196062B66A4BDB68934213
:100CB00000F0AF80674B68491960DA6042F080420B
:100CC0001A61664A1A60A4E02846FFF75FFE013EFB
:100CD00016F0FF06F8D1594B1B78C3B113F0010F82
:100CE00003D0594B1A685E4B1A60544B1B7813F0B3
:100CF000020F03D0544B5A685A4B1A604F4B1B7863
:100D000013F0040F03D0504B9A68574B1A602046DB
:100D1000FFF7B4FE4FF00008DFF814910BE0D9F8AC
:100D200000300493049BDB1B9BB2B3F5FA6F02D92E
:100D30000123637169E0204641464246FFF730FFD8
:100D40000546E0720128EAD1204608214FF4D57209
:100D5000FFF726FF10F0040F02D00123237310E0E9
:100D60004FF00408FFF7C8FDE07208F1FF3313F0FD
:100D7000FF08F7D1AA2802D00223637145E00223BD
:100D80002373237B022B14BF4FF0000A4FF0804ADD
:100D90004FF037094FF00008DFF894B00BE0DBF8B4
:100DA00000300593059BDB1B9BB2B3F5FA6F02D9AC
:100DB0000823637129E0204649464246FFF7F0FECA
:100DC000204629215246FFF7EBFEE0720028E6D1CB
:100DD000237B022B11D120463A210022FFF7E0FEAF
:100DE00010B10623637110E0FFF786FD00F0C0002C
:100DF000C02811D1032323730EE02046FFF70AFE1B
:100E00000198FFF7D3FD2E460DE02046FFF702FEC6
:100E100009E00A26FF2557E7FFF76EFDFFF76CFD97
:100E2000FFF76AFDE9E7304607B0BDE8F08F00BF85
:100E30009093FF1F3C8004405C91FF1F8C93FF1F29
:100E400080E100E07493FF1F8093FF1F84E100E0C6
:100E500088E100E000C0024001401F0000001F8048
:100E600000E100E004E100E008E100E070B582B0DC
:100E70000446114B1B680093009D0F4EADB20AE073
:100E800033680193019B9BB25B1BB3F5967F02DD38
:100E90000F23637108E0FFF72FFDE072FF28EFD00A
:100EA000FE2806D00D2363712046FFF7B3FD002016
:100EB00000E0012002B070BD9093FF1FF8B5054619
:100EC0000C4617461E46002B00F089801344B3F5EC
:100ED000007F7FDC83792BB103688B4202D10389C9
:100EE000934216D92C602B7B032B18BF6402284633
:100EF00011212246FFF754FE10B103236B7169E004
:100F00002846FFF7B3FF002864D000232B8101237C
:100F1000AB713846FFF704FD3046334A334B1A6055
:100F200016F0010F07D0069A541CFFF7E5FC069B4C
:100F30001870701E0694052804D9032700232B4936
:100F40002B4A02E04708F9D103E04A6301339F428C
:100F5000FBDCA0EB4700069A1044824219D21446EB
:100F60002249DFF88CC0CA6A12F0F00FFBD0C1F83A
:100F700034C08B6BC3F30722227063700234A0422B
:100F8000F1D8069AD343034423F0010302331A44F1
:100F9000069200EB4700069B98420DD91C46134968
:100FA000CA6A12F0F00FFBD08B6BC3F307222270DA
:100FB00063700234A042F3D82B8933449BB22B8157
:100FC000AA7A12B1B3F5007F0BD32846FFF7B6FD1E
:100FD0000120F8BD2846FFF71DFD0020F8BD0120C7
:100FE000F8BD0120F8BD00BF00041F8000C0024012
:100FF000FFFF009000B583B0009200224FF4007311
:10100000FFF75CFF03B05DF804FB00BFF8B50646D0
:10101000214B186840F4806018604FF00040D8629F
:101020005963114602F500770446DA6A002A0FDB9D
:10103000FBE7DA6A002A14DBFBE7D36A002B1CDB30
:10104000FBE7112373713046FFF7E4FC0020F8BD85
:1010500008460A781D6845F480651D60DC625A63A5
:10106000E7E742781D6845F480651D60DC625A63DD
:101070000231B942D9D1084ADFE7FF20FFF786FCE9
:10108000FF20FFF783FCFFF737FCF07200F01F0032
:101090000528D6D10120F8BD00C0024038B504466D
:1010A00015460B4611B9122343712BE0027B032A2C
:1010B00018BF4B0218211A46FFF772FD10B1042326
:1010C00063711FE02046FE212A46FFF79FFFC8B14B
:1010D00020464FF41671FFF747FD10B915236371D1
:1010E00010E020460D210022FFF75AFD10B9FFF74E
:1010F00003FC10B11423637104E02046FFF78AFC5F
:10110000012038BD2046FFF785FC002038BD00BF18
:10111000014A024B1A607047011001385C91FF1FB1
:1011200010B50446006A012104F1080200F044FDF4
:10113000034650B1E3693BB9A368E361637963F0A7
:101140007F036371012300E00123184610BD00BF37
:1011500070B50646FFF7E4FF0346E0B1336AB268B4
:10116000023A197C02FA01F55A6915441C794CB10E
:10117000013D281900F056FC034660B1013C14F013
:10118000FF04F6D1336A1B7C4FF400729A40B369B6
:101190001344B3610123184670BD00BF10B5044667
:1011A000006900F01BFC20B1207D034B03EB4010D5
:1011B00010BD002010BD00BF7091FF1F2DE9F00190
:1011C00000232022CA5401330B2BFBD10138002508
:1011D00007264FF008084FF00A0C1B4F21E02E2C79
:1011E00001D03A4606E00A2E24D04546664618E06D
:1011F000A34221D012F8013F002BF9D1AE421DD3FA
:10120000A4F12103DBB25D2B1AD86B1CDBB20D44B9
:10121000A4F16102D2B2192A9CBF203CE4B22C7026
:101220001D4610F8014F002CD9D10878203818BF7E
:10123000012006E0002004E0002002E0002000E0A1
:101240000020BDE8F00170470F56000038B5044695
:101250000D4683790BBB91F82020102A07D1022379
:1012600083710023C3614B8C5B0183610CE0202AF6
:1012700014D103238371496AC161284604F118021D
:1012800000F026FC034648B1256201236371002269
:10129000A260E2602261227500E00023184638BD9A
:1012A0002DE9F04F85B00446884603928379002BE0
:1012B00069D0437913F0010F68D08269C368D11AED
:1012C0000398884201D98BB20393039B002B57D01C
:1012D0001E46DFF8FCA0DFF8FC90DFF8FCB0E36806
:1012E000C3F30807A279022A04D1226A516A01EBEA
:1012F00053211BE0206A0579013D05EA5325EDB233
:101300005FB955B913B9E369A36006E0224652F804
:10131000081F00F0A7FB00283BD0226AA368023B0D
:10132000117C03FA01F1526911442944C7F5007395
:101330009E42C6BF1D46ADB23546637913F0400FDD
:1013400002D1B5F5007F39D1D9F8003099422AD1C0
:1013500034E0A8440DE057447819874209D03B4651
:10136000424613F8011B02F8011B8342F9D1C71B47
:10137000B844E3682B44E360761BB6B2002EAED1CE
:10138000039B98B20DE04FF6FF700AE04FF6FF7036
:1013900007E04FF6FF7004E04FF6FF7001E04FF6F4
:1013A000FF7000B211E0CDF80080DBF800003A4693
:1013B0002B46FFF783FD0028CBD1EDE7084600213F
:1013C00000F00CFB0028C6D1E9E705B0BDE8F08FBE
:1013D0007091FF1F6487FF1F6C91FF1F30B583B0B2
:1013E00004468379012B0FD9C5680DF1070101224D
:1013F000FFF756FF012809D1E3681F33E36005F4C6
:10140000F070044B184402E0002000E0002003B01C
:1014100030BD00BF7091FF1FF8B504460F468379B9
:101420007BB382698A422BD3022B02D1E160012374
:1014300027E021B900238360C360012321E0C36852
:10144000026A157C09355A1EEA40013921FA05F570
:10145000AA4200D813B9E369A3600AE0AD1A08E014
:10146000206AA168324600F0FDFA013D034610B93A
:1014700007E004F10806002DF2D1E760012300E047
:1014800000231846F8BD00BF38B50446807918B36C
:1014900094F90530002B1BDA20460121FFF77EFE70
:1014A0000546C0B1A379012B9CBFA369C361A38B7F
:1014B0004383E38B8382094B1B682BB1183005F102
:1014C000160198472B8B6B82637903F07F0363715E
:1014D00000F058FA38BD002038BD00BF6491FF1FEE
:1014E00010B50446FFF7D0FF034610B10023A371E7
:1014F0000123184610BD00BFF0B583B004460D4669
:101500008379012B4ED1427902F0020202F0FF01F1
:10151000002A49D08269AA4248D3002A47D0C66827
:101520002946FFF779FF0346002840D04DB9206ACD
:10153000E16900F0A5FB0346002838D00023E361F1
:101540001DE0206AA16801AA00F08CFAA8B1206A07
:10155000019990F820704FF6F872164B102F08BFC3
:10156000134699420BD200F08BFB30B1206AA16880
:101570006FF0704200F0D8FA08B9002317E0A561B7
:10158000637963F07F0363712046FFF77DFF0346B5
:1015900068B12046B54234BF29463146FFF73CFFCB
:1015A000034604E0002302E00B4600E00023184657
:1015B00003B0F0BDF8FFFF0F38B5044615461F4BCA
:1015C00003EB4113DA7A12F0110F02D015F0420F3B
:1015D0002CD121751A4A12682261998A0904E161A5
:1015E0005A8B1143E161D87A10F0180004D1DB69FD
:1015F000A3610123A3710AE0102819D1206A04F124
:10160000180200F065FA0346A8B10423A37105F09F
:101610000F0363710023A360E36015F0400F09D04E
:1016200020461946FFF768FF034604E0002302E066
:10163000002300E00123184638BD00BF7091FF1F52
:101640006487FF1F2DE9F04F85B005460C469A468A
:101650008679002E7FD1104601A9FFF7AFFD002843
:101660007BD0236A2B620027A760E760DFF8FC903D
:101670004FF0010825E0C1F3431B2046FFF7AEFE03
:10168000014600286AD003780BB1E52B09D12FB9A8
:1016900085F814B0D9F800302B6147460B7883B930
:1016A00013E001A80B2203F08FFC50B90AF03003BD
:1016B000302B53D0284659465246FFF77DFF064649
:1016C0004CE0E168A3699942D5D30AF01203122BCA
:1016D00044D137B128460121FFF760FD044660B9C7
:1016E0003CE0A379022B39D02046FFF731FD0646B6
:1016F000002833D000232B751A4C204600212022CD
:1017000003F096FC01AB03CB206061601A889B78E4
:101710002281A372144B1B682BB104F1100004F159
:101720000E01984707E021232374282363740023C4
:10173000A3730823E373238A63822383E389E38209
:1017400000F020F9064648B12846297D5246FFF7A9
:1017500033FF064602E0002600E00646304605B0AC
:10176000BDE8F08F7091FF1F6491FF1F6487FF1F1A
:101770002DE9F04F85B00446884601928379012B0C
:1017800040F0BE80437913F0020F00F0B98013F0EF
:10179000040F08D08169C3688B4204D0FFF73CFE78
:1017A000002800F0AD80019A002A00F08C801646D7
:1017B000DFF8B0A1DFF8B0B1206AE76890F80490D4
:1017C00009F1FF3909EA5729C7F3080719F0FF099A
:1017D00029D1002F40F0AA80A16851B9E36933B93B
:1017E0002046FFF79DFC002840F08E8088E0A36033
:1017F0008AE003AA00F036F9002800F0A880039BD5
:10180000226A92F820004FF6F871524A102808BF59
:101810000A46934205D32046FFF782FC002873D185
:101820006EE0A36070E0C7F50075ADB2AE4238BFA0
:101830003546A368023B027C9340426913449944B5
:10184000B5F5007F12D1DBF800304B4504BF4FF0F7
:10185000FF33CBF80030404B186849464246FFF74B
:101860001DFC00284CD008F5007824E07FB9E26820
:10187000A3699A420BD300F085F8002840D0CBF83A
:101880000090364A137843F00103137005E0484690
:10189000012100F0A3F8002832D05744781987427C
:1018A00009D03B46424612F8011B03F8011B834254
:1018B000F9D1C71BB844761BB6B2E3681D44E56096
:1018C000002E7FF479AFE368A269934205D9A36142
:1018D000637963F07F03637108E0214B1B682BB1D0
:1018E000019B1BB1637963F07F036371637913F02C
:1018F000080F03D02046FFF7C7FD08B1019826E086
:1019000001232371002022E0B6F5007F34BF354665
:101910004FF40075236AA268023A197C02FA01F9B1
:101920005B699944B5F5007FA1D18CE7C7F50075D7
:10193000ADB2AE4238BF3546A368023B027C03FA23
:1019400002F943699944B5F5007FA0D17BE705B062
:10195000BDE8F08FF8FFFF0F6C91FF1F7093FF1F22
:101960006491FF1F7091FF1F6487FF1F00B583B054
:1019700002AB03F8011D19460122FFF7F9FE03B07F
:101980005DF804FB08B5104B1B78D3B10F4B1868FA
:101990000F4B19680F4AFFF781FB034690B10E4BBE
:1019A000196849B1094B18680A4AFFF777FB0346E3
:1019B00040B10022084B1A600022034B1A70012329
:1019C00000E00123184608BD7093FF1F6C91FF1FB4
:1019D0006487FF1F7091FF1F6891FF1F38B5044691
:1019E0000D460C4B1B6883420DD0FFF7CBFF03461F
:1019F00070B1094B18682146084AFFF7FBFA034605
:101A000030B1044B1C60064B1A7815431D7001233E
:101A1000184638BD6487FF1F6C91FF1F7091FF1F30
:101A20007093FF1F10B50446FFF7ACFF034680B16B
:101A300009494B1E01F2FF11002203F8012F8B42CE
:101A4000FBD1064B1C60064B1A7842F001021A705B
:101A50000123184610BD00BF7091FF1F6487FF1F50
:101A60007093FF1F70B504460D461646C3680133D8
:101A70008B4225D3C36990F82020102A0CBF080A96
:101A8000C8091844104B1B68984204D00021FFF786
:101A9000A5FF0346A8B194F82030102B06D1EDB273
:101AA0000A4B33F81530336001230AE005F07F0557
:101AB000064B53F8253023F070433360012300E0D8
:101AC0000023184670BD00BF6487FF1F7091FF1F81
:101AD0002DE9F04383B0044602AE46F8041D91465A
:101AE00000254FF400780F4F204601993246FFF74A
:101AF000B9FF034688B1237C08FA03F31D4494F828
:101B000020104FF6F873102914BF39461946019B6F
:101B10008B42E9D3C9F800500123184603B0BDE851
:101B2000F08300BFF8FFFF0FF8B504460D461746D7
:101B3000012931D9C368013399422FD8C36990F87C
:101B40002020102A0CBF0E0ACE091E44164B1B681B
:101B50009E4205D030460021FFF740FF034600B308
:101B600094F82030102B04D1EDB2104B23F81570EF
:101B700004E005F07F050D4B43F825700C4B1A78F7
:101B800042F001021A70237E012B09D9A3681E447A
:101B9000084B1E60012304E0002302E0002300E064
:101BA00001231846F8BD00BF6487FF1F7091FF1F17
:101BB0007093FF1F6891FF1F2DE9F04F85B0064617
:101BC0008A46009217681FB101370023019305E090
:101BD0000768012914BF002301230193F36803F16F
:101BE0000108DBB13C4600254FF00209CB46A04579
:101BF0003CBF4C465F463046214603AAFFF732FF02
:101C000060B1039B0BB1671C03E0631CDB1B5345F6
:101C100006D001350134F368AB42E8D800232AE04E
:101C2000304621466FF07042FFF77EFF034648B909
:101C300021E0651E304629462246FFF775FF034620
:101C400018B918E0BC42F4D803E0BD4201D92C46D3
:101C5000EFE7009B196829B130463A46FFF764FF69
:101C6000034640B1009B1F60019B1BB101373760E9
:101C7000012300E00123184605B0BDE8F08F00BF46
:101C8000F0B583B005460C460223036000260E4FD4
:101C90002846214601AAFFF7E5FE80B128462146E5
:101CA0003246FFF741FF50B1019C95F820104FF6E6
:101CB000F873102918BF3B469C42E9D301E000208D
:101CC00000E0012003B0F0BDF8FFFF0FF8B50546B6
:101CD000494B19601446DAB1042A7FD80020014626
:101CE000FFF77CFE0346002800F08380434B03EBA4
:101CF000041494F8AE3104F5D47413F07F036FD15B
:101D0000D4F81210632974D9D4F80E400CB970E0DD
:101D1000002420460021FFF761FE0346002868D01A
:101D2000364BB3F80B30B3F5007F5BD1334B1B7CE4
:101D3000002B5ED0314AD289002A55D02F4A517BE0
:101D4000002953D02B76297100232B74012003E046
:101D50005A1C2A74072B4BD82B7C1E4600FA03F220
:101D60009142F5D1254BD98A01B9596AA960234B13
:101D7000DA892244EA61B3F8110087B268841B7CD7
:101D800003FB01236B627A0102F2FF1203EB622371
:101D90006B611A4AB2F813200AB9184A126AE31A98
:101DA000134423FA06F6EE6040F6F4739E4204D81C
:101DB0000C2385F8203001231BE04FF6F4739E427C
:101DC00004D8102385F82030012312E00B4BDB6A86
:101DD0006B62202385F8203001230AE0002308E00D
:101DE000002306E0002304E0002302E00B4600E0AD
:101DF00000231846F8BD00BF6C91FF1F7091FF1FB4
:101E0000184B1A6842F480521A60174B174A1A602E
:101E1000174ADA6002F180421A61164A1A60164BBC
:101E20001B7813F0010F07BF4FF41072134B4FF4E0
:101E30000072134B1A60104B1B7813F0020F4FF413
:101E400000720CBF0F4B104B1A600B4B1B7813F03A
:101E5000040F07BF4FF410720C4B4FF400720C4B81
:101E60001A6070473C80044000C0024001401F00DF
:101E70000110003800001F808594FF1F18B0044037
:101E800008C004401CB004400CC0044014B004401E
:101E900004C0044038B504460D46C8B2012100F024
:101EA00093F92560204638BD38B5044615460160D3
:101EB0006260C8B2002100F087F9E8B2012100F0A9
:101EC00083F9204638BD00BF38B504460D46FEF7FD
:101ED0009FFB6562002384F8283084F82930E8B23B
:101EE000012100F071F9204638BD00BF30B589B03E
:101EF0000446214894F82410FEF7CAFB10B994F860
:101F0000280037E0012384F8283068461A491B4A24
:101F1000FEF75EFC9DF804302371029BA3609DF8E0
:101F20000C30237308AB53F8135D58689968C4F8F4
:101F30000D50C4F81100C4F815101B7B6376079B85
:101F4000E3616846FEF772FB2046FEF797FB10B987
:101F500094F829000EE0012184F82910084D284644
:101F600001F0C6F8284601F077F894F8290008B186
:101F700094F8280009B030BDFC90FF1F20560000E7
:101F80008894FF1F10B504460160C8B2002100F01C
:101F90001BF9204610BD00BF60223A4B1A70E122A7
:101FA00001331A70384B1B78082B10D1012203F132
:101FB000804303F56C331A60132334490B6001F539
:101FC000FF2101F2FC710A60314A13601FE00A2B05
:101FD0000DD139222F4B1A6013232C490B6001F5C8
:101FE000FF2101F2FC710A60294A13600FE00C2BFB
:101FF0000CBF35223D22274B1A60122323490B6068
:1020000001F5FF2101F2FC710A60214A1360224BA5
:102010001B7833B10123214A136002F500221360BB
:1020200005E000231D4A136002F5002213601C4BDB
:102030001B78012B06D880231A4A136002F5002270
:1020400013601AE0042B06D88423164A136002F5A5
:102050000022136011E0082B06D88523114A136073
:1020600002F50022136008E0102B94BF862387231B
:102070000C4A136002F50022136001220A4B1A7009
:10208000704700BF004007406887FF1F0CB0034047
:102090000CB00B4008B003408E93FF1F20B00340EC
:1020A0006987FF1F24B003408D93FF1F024B1A68FE
:1020B00001321A60704700BF9093FF1F08B50D4CA6
:1020C000236813F4802F01D000F046FA236813F43C
:1020D000806F01D001F08EFB236813F4006F01D0F4
:1020E00001F03AFF236813F4805FE9D002F0F2F9BF
:1020F000E6E700BF3480044008B5FFF7DFFF00BF0C
:102100001022014B1A80704700200540704700BF25
:10211000024A136818441060184670476C87FF1F06
:10212000EFF31383ABB9EFF31083ABB9EFF3058390
:1021300023B10F2B05D9094A985C03E04FF4807056
:1021400000E00020EFF311833BB1834238BF184613
:1021500070474FF0FF30704700207047F0E300E019
:10216000044B00221A6004490A60044A10601022DD
:102170001A60704714D0034004D0034000D00340DD
:1021800021281ED80F4B53F8303093F8802212F0DC
:10219000FF0F08D019B1012283F880207047012277
:1021A00083F800217047074B03EBC000436821B15F
:1021B0001A6842F003021A6070471A6822F002029D
:1021C0001A6070478456000021284AD8254B03EB3B
:1021D000C0035B68012911D004291DD0214A52F89F
:1021E0003020002082F8800200292FD0022931D02F
:1021F00003291FD040F203121A607047194A52F89F
:102200003020012182F880124FF4A2721A601A68FD
:1022100022F020021A607047124A52F83020012141
:1022200082F880124FF4A2721A601A6842F02002FB
:102230001A6070474FF480721A601A6842F0020206
:102240001A601A6822F001021A6070474FF4807217
:102250001A6070474FF480721A601A6842F00302E5
:102260001A6070478456000072B60C4B1B680C4A0B
:1022700012680C49096862B611F0806F02D0322BE7
:1022800088BF0132C3F5BB33FF330749A1FB03030A
:102290009B094FF47A7000FB0230704718E000E0B1
:1022A0009093FF1F04ED00E0ABAAAAAA38B505463B
:1022B000FFF7DAFF044625B938BD013D0AD004F521
:1022C0007A74FFF7D1FF001BB0F57A7FF5D200F0EA
:1022D00049FFF6E738BD00BF10B5264B4FF40002AA
:1022E0001A604FF080721A604FF000721A604FF05F
:1022F00080621A604FF000621A6000201E4B186066
:102300004BF6FF710433196028231C4A136008320E
:102310001360083213600832136008321360083209
:10232000136008321360083213600922144C2260D3
:1023300004F58054043420600434216004342360A4
:1023400008342360143C226004F5FE240434206029
:102350000C4801600C490B6008310B600B4B1A6094
:10236000FFF71AFE4FF4C870FFF7A0FF00F074FCEF
:1023700010BD00BF08E100E0048003400C80034072
:102380000080034008800B400C800B4000800B4015
:1023900030B40E4B1B7843F002020D4C04EBC20428
:1023A00060600C48007800280CBF8824C82444EAE8
:1023B0000141074D45F8321080F00100054A1070C8
:1023C00083F00103014A137030BC7047FC93FF1F78
:1023D0000080FF1F7594FF1F10B4431E032B11D8FC
:1023E00072B60A4A52F8230050B14268074941F8D0
:1023F0002320074A32F813400188611A22F813108B
:1024000062B600E000205DF8044B7047EC93FF1FBC
:102410009096FF1F013803280DD872B6074B53F86A
:1024200020302BB1002001305B68002BFBD100E095
:10243000002062B670470020704700BF4094FF1F25
:1024400038B572B601231B491B4C5A1812F8012CDF
:1024500012F0080F24D09A0054F832506DB9164B80
:1024600003EBC20108304860144943F83210144BA2
:102470001A78013A1A7062B638BD42F0010254F877
:1024800032506DB90C4B03EBC201083048600D4966
:1024900043F832100A4B1A78013A1A7062B638BD06
:1024A0000133052BD1D162B60022054B1A7000F022
:1024B00037FC38BDC05700000080FF1F8800400077
:1024C0006A94FF1FC800400010B4431E032B37D886
:1024D000400140F010001C4A104472B61B4AD25C06
:1024E000032A09D8DFE802F019021B05083002228E
:1024F00016E00830042213E0154A52F823201AB9D6
:10250000134A42F8231003E0124A52F82320516084
:10251000104A42F8231062B612E0032200E00522BE
:102520000A4CE25401F10803436000F00803002B59
:102530000CBF8823C8230A8843EA0243036062B6BB
:102540005DF8044B704700BF0080FF1FA893FF1F7A
:102550004094FF1F5094FF1F2DE9F84FA34CDFF864
:10256000E092DFF8E0A2DFF8E0B22578EDB215F0F6
:10257000040F1DD09E4B1B7813F0FF0F16D09D4B00
:102580001B7803F0FF022BB1531EDBB2994A137084
:1025900003B900BE984B1B7803F0FF0233B1531E02
:1025A000DBB2954A13700BB900F016FD04232370BB
:1025B00015F0080F00F0E48299F80030DBB21D0935
:1025C00040F021828D4D9E0805EBC6035A6855F8F0
:1025D0003630C3F38303013B0C2B00F21082DFE89B
:1025E00013F0CB01CB010E020E020E020E020E0200
:1025F0000E02E8010E020E020E020D008049136861
:102600000B6052684A607F4A45F8362000227E49B6
:102610000A607A490A618A6101217C4A11709BB281
:1026200040F28162934218D8B3F5D06F2ED2B3F541
:10263000817F00F01E8106D8802B00F0C980822B9C
:1026400000F0CC8066E140F20232934200F0268135
:10265000B3F5A06F00F062815CE142F22102934287
:1026600000F0868107D8B3F5086F00F0AB80B3F5B2
:10267000106F11D04EE142F22122934200F04181CD
:1026800042F22132934200F0498143E1604B5D68A0
:10269000002D40F0188130E1594B9A78544B1A7054
:1026A000564D05F180062B6A13F0800F03D0686A3F
:1026B000083800F035FB0835B542F4D1DFF88C81DD
:1026C00000263746534AB05828B1456800F028FB29
:1026D0000DB12846F9E700234E4973504E4AB350D6
:1026E0004E4BF05828B1456800F01AFB0DB1284652
:1026F000F9E7002349497350494AB35028F8023F8B
:10270000484BFB5C023B032B0AD8DFE803F00206D0
:1027100002060022434BDA5502E00122414BDA5512
:1027200001370436102ECDD100223F4B1A700125FF
:102730003E4EDFF81C81314F05EB080313F8013CD6
:1027400006F8043B13F0080F2DD000F0C9FA48B189
:10275000A90007EB451200F108035360344A47F81B
:10276000312007E0AB00002247F833202E4B1A78C7
:1027700001321A7000F0B4FA58B1AB0043F0010313
:1027800007EBC30100F108024A601E4A47F83320F4
:1027900009E0AB0043F00103002247F83320224B4D
:1027A0001A7801321A70AA0042F00201002347F899
:1027B000313042F0030247F8323001351D4B9E4262
:1027C000BAD11EE20A4B1B781B4D2B700127AAE0E1
:1027D000194D00232B706B700227A4E0084B9B88D7
:1027E000042B37D90F22154B1A70C1E08020074007
:1027F0007494FF1FFD93FF1F7694FF1F0080FF1F3F
:102800006094FF1FC80040009493FF1F7594FF1F42
:10281000C4570000EC93FF1F9893FF1F4094FF1FC5
:102820005094FF1FA893FF1F6A94FF1FC420074006
:1028300088004000D42007406C94FF1FC020074050
:102840009020074094200740982007408E96FF1F55
:10285000C0570000A04A0021117051709F4A12F821
:10286000233013F0020F5CD09B4D01232B70022705
:1028700059E09B4B9B8803F07F03042B02DC984AB2
:1028800052881AB10F22954B1A7071E0934A12F8D0
:10289000231021F0020102F82310B2E1904B9B8833
:1028A00003F07F03042B02DC8D4A52881AB10F22F9
:1028B0008A4B1A705CE0894A12F8231041F0020139
:1028C00002F823109DE1864B5E889F88854BA3F11B
:1028D0000C02114633F80C0CB04209D133F80A0C43
:1028E000B84205D1360A032E0CBF2F7817891AE09B
:1028F0000D690C330C32002DEBD10F22774B1A707F
:1029000036E0794B1A68794B1A60754B9A78784B98
:102910001A7076E10F22714B1A7029E000273D46AC
:1029200001E002276C4D6E4BDB889F4228BF1F469B
:10293000402F34BF3E46402628463146FFF728FD4B
:102940003544BF1B03D13F2E00F2608110E0402FC1
:1029500034BF3E46402628463146FFF719FD354430
:10296000BF1B01D13F2E03D9624B1D60624B1F80FC
:1029700001238AF8003042E0594B198842F22103C2
:10298000994212D15D4BD81D12F8011B03F8011FAB
:102990008342F9D15A4B1B68862B02D10F22594B27
:1029A0001A7000200146FFF7F3FC574B45F836300C
:1029B00025E0504B1E68BEB14F4FB7F80080B8F10C
:1029C000400F34BF4546402530462946FFF7E0FC1E
:1029D000C5EB08039BB23B800BB9402D01D13544B8
:1029E00000E00025434B1D603D4B1B88B3F5A06FF5
:1029F00005D13B4B00225A709B788BF800300123A5
:102A00008AF80030B9E0414E9F0806EBC708D8F8B5
:102A10000420A2F10800013DEDB213F0080F47D0E9
:102A200000F07EF93A4B53F825304BB35A683849D9
:102A300041F8252003F10802C8F80420354A525D08
:102A4000032A12D8DFE802F002060A0E0321314AF7
:102A500051550AE002212F4A515506E005212D4A21
:102A6000515502E004212B4A515518F0080F0CBFB4
:102A70008822C8221B8842EA034346F837307CE0AC
:102A8000244B5B5D032B0BD8DFE803F0777702065E
:102A90000022204B5A5570E001221E4B5A556CE023
:102AA00018F0080F0CBF022203221A4B5A5564E09B
:102AB00056F837301B0C22F8083C002B55D0002369
:102AC00022F8063C42F8043C134B53F825302BBB4C
:102AD000114B43F8250025E06C94FF1FC0200740F0
:102AE0006094FF1FD05700009093FF1FA096FF1F18
:102AF0008494FF1F9493FF1F6894FF1F9796FF1FF6
:102B00009896FF1FFD93FF1FC80040000080FF1F25
:102B10004094FF1FA893FF1FEC93FF1F3F4B53F8F8
:102B2000253058603D4B43F825003D4B33F81510D8
:102B300032F8082C0A4423F8152000F0D1F860B1CF
:102B400000F10803C8F8043018F0080F354B364A76
:102B500008BF134646F837300FE0002346F83730F9
:102B6000324B1A7801321A7007E018F0080F2D4B1B
:102B70002D4A08BF134646F8373008232370F4E483
:102B800015F0010F22D02A4902230B700022294B95
:102B90001A70294B24481860284C5C6098602848BB
:102BA000D8601A619A610D20264B1870FF232648C1
:102BB00003700838037018300270244A13709F2283
:102BC000234B1A7001230B70BDE8F88F15F0800FAE
:102BD00005D00D221B4B1A708022403B1A7015F055
:102BE000020F06D0184B1A78D2B21A700222083B94
:102BF0001A7015F0100F0ED01022164B1A70BDE887
:102C0000F88F00200146FFF7C3FBB1E628460021FC
:102C1000FFF7BEFBACE6BDE8F88F00BF9893FF1F3F
:102C20009096FF1FC8004000880040006A94FF1F74
:102C300094200740FC93FF1F0080FF1FAC93FF1FF1
:102C40000094FF1FC0200740882007408C200740C9
:102C5000842007408020074008B501F0AFFC002326
:102C60001B491A465A50C81842600833882BF9D1BC
:102C7000184B1A6842F480221A60154BC3F30721DF
:102C8000154A1170C3F30741143211701B0E043240
:102C90001370FF23343A137008321370783A1370AC
:102CA00001238432137000216C3211707C3A13704E
:102CB00070220A4B1A704FF40072A3F241331A606B
:102CC000102203F1C04303F5C8231A7008BD00BFEA
:102CD0000080FF1F348004409C20074049E400E04E
:102CE00072B60D4B1A68B2FA82F30B2B02D962B698
:102CF000002070474FF00041D94022EA0102064906
:102D00000A6062B6054903EBC303DB00C818002262
:102D1000CA504260704700BF7087FF1F0084FF1FCA
:102D200008B50F4BC31A0F4AA2FB03131B090B2B49
:102D300014D80D4A12783AB10C4A127812F0FF0FEB
:102D400002D0FFF77DFB08BD72B6094A4FF0004183
:102D500021FA03F311681943116062B608BD00BF80
:102D60000084FF1F398EE3386A94FF1F7494FF1F9D
:102D70007087FF1F10B5134B1B6853B9124B1B789C
:102D800013F0FF0F18D00320FFF726FB0D4B186040
:102D9000A8B10C4B186843885A1C03441C7A03885A
:102DA0009A4206D3FFF7BCFF0022064B1A6020466A
:102DB00010BD4280204610BD4FF0FF3010BD4FF0D7
:102DC000FF3010BD8094FF1F7494FF1F08B50D4B9A
:102DD0001B6883B90C4B1B7813F0FF0F08D003203E
:102DE000FFF7FAFA074B186028B94FF0FF3008BD1B
:102DF0004FF0FF3008BD034B1B685A881344187A04
:102E000008BD00BF8094FF1F7494FF1F044B988877
:102E1000044B1B681BB11A885B88D31A184470478F
:102E20009096FF1F8094FF1F10B50B4B1B7813F07B
:102E3000FF0F0FD0094B186820B1FFF771FF002278
:102E4000064B1A6003242046FFF7C6FA10B1FFF7BD
:102E500067FFF8E710BD00BF7494FF1F8094FF1F49
:102E60002DE9F04704460122374B1A700E4600291F
:102E700064D0DFF8E080DFF8E0909A46334FD8F86E
:102E8000003083BB99F8003013F0FF0F06D1002209
:102E90002D4B1A704FF0FF30BDE8F0874AF2F9254C
:102EA0000420FFF7B7FA07280AD801238AF8003070
:102EB000FFF716FFC8F80000A8B900238AF8003011
:102EC000013D01D03B7833B10122204B1A704FF005
:102ED000FF30BDE8F08700F045F999F8003013F0B5
:102EE000FF0FDDD1D3E700233B70D8F800104A88EC
:102EF000C2F14005AE4238BF354602F108030B442B
:102F00002A444A80761B3DB1254414F8012B03F86E
:102F1000012BAC42F9D100E025464B883F2B07D965
:102F200040230B800420FFF7CFFA0023C8F80030BD
:102F30000522074B1A700EB12C46A0E70020024B69
:102F40001870BDE8F08700BF7794FF1F7C94FF1FC7
:102F50007694FF1F7894FF1F7494FF1F00B583B011
:102F600002AB03F8010D18460121FFF779FF03B00A
:102F70005DF804FB10B5144B1B7813F0FF0F21D044
:102F80000122124B1A70124B196851B10024114BD7
:102F90001C704B880B800420FFF796FA0C4B1C60CA
:102FA0000DE0FFF79DFE014630B10022094B1A707B
:102FB0000420FFF789FA02E00122064B1A70002272
:102FC000024B1A7010BD00BF7494FF1F7794FF1F4F
:102FD0007894FF1F7694FF1F08B50E4B1B7813F0F3
:102FE000FF0F16D10C4B196841B14B880B800420A0
:102FF000FFF76AFA0022084B1A6008BDFFF770FE5F
:10300000014618B10420FFF75FFA08BD0122034B07
:103010001A7008BD7794FF1F7894FF1F7694FF1FE6
:1030200008B5FDF725FAFDF72FFA00F09BF8FAE74F
:10303000F8B506460F46144652B1002533681B68A2
:10304000304617F8011B98470544013CF6D100E0D3
:1030500000252846F8BD00BF00B583B0054B1B888E
:10306000ADF8043003685B6801A90222984703B0F9
:103070005DF804FB94570000F0B58BB0164622B9FA
:1030800003681B68C9B298472FE0012A08BF0A26C7
:1030900021B930228DF82520212417E0212437463C
:1030A000B1FBF6F506FB1515EDB22246092D94BFCE
:1030B00030353735EDB20DF1280E724402F8245C3C
:1030C000B1FBF7F111B1013CE4B2E9E733B1013CE6
:1030D000E4B20AAB23442D2203F8242C03685B6876
:1030E00001A92144C4F1220298470BB0F0BD00BFF2
:1030F00008B50029BABF49422D2300230A22FFF751
:10310000BBFF08BD08B5FFF781FE08BD08B5FFF796
:1031100031FE08BD08B5FFF759FE08BD08B5FFF739
:1031200029FF08BD08B5FFF77FFE08BD08B50846B2
:10313000FFF714FF08BD00BF08B508461146FFF7AA
:103140008FFE08BD704700BF044B00221A714FF478
:103150007A7199601A73024A1A6070478894FF1F47
:10316000A057000008B50F4B1B78CBB901220D4BBF
:103170001A70FFF74BFE08B1FFF7E4FF00F0B0FA5A
:1031800008B101F0F1FA00F05DFE08B101F08EFB2C
:1031900001F02AF908B101F02BFC0022014B1A7052
:1031A00008BD00BF9894FF1F30B40023B0FBF2F4B9
:1031B00002FB14041D46092C94BF30343734E4B2AA
:1031C000CC54B0FBF2F008B10133EFE70D4400221C
:1031D0006A70934207DD885CCC5C8C54C854013221
:1031E000013B9A42F7DB084630BC7047254B1A6812
:1031F00042F480621A600023234A1370234A13703A
:10320000234A1370234A1370234A1370234B1B78ED
:1032100013B1152B05D008E040F21332204B1A6091
:1032200003E040F213321F4B1A601F4B1B78012B37
:1032300002D0052B05D008E04FF451721B4B1A60E9
:1032400003E04FF451721A4B1A60C0F34432194B29
:103250001A70C0F347125A7000F01F0098720422CF
:103260009A700221D9745A7588221A743C22DA7035
:103270004022114B1A704FF40052A3F229331A6006
:10328000704700BF348004402895FF1FA194FF1FA2
:103290003095FF1F2995FF1FA094FF1FE494FF1F87
:1032A00040A0044018C004407487FF1F44A004409D
:1032B0001CC0044000A006402DE400E0164B9B78A3
:1032C00003F0EC0300F00302134310F0040F18BFE7
:1032D00043F01003104A937000F00F03042B04D145
:1032E0001346927942F040029A710B4B5A7902F0E0
:1032F000EF0210F0100F18BF42F01002064B5A7187
:103300009B7903F0EF0310F0200F18BF43F0100378
:10331000014A9371704700BF00A0064010B5144BDE
:103320001B6813F4806F21D0124B1B7813F0FF0F32
:1033300006D0104CFFF716FF237813F0FF0FF9D1DA
:103340004FF400520C4B1A6000230C4AD37040F229
:1033500003120B490A6004310A600A4A13700A4AD0
:1033600013700A4B1B680BB101221A7010BD00BF0D
:1033700034800440A094FF1F84E100E000A00640D8
:1033800040A004402895FF1FA194FF1F9C94FF1F9D
:1033900010B50446094A137813F0FF0FFBD12046FD
:1033A0000121FEF711FF20460021FEF7E9FE044B44
:1033B00053F83420034B1A6010BD00BFA094FF1FC8
:1033C000845600002C95FF1F10B40C4609B140F044
:1033D0008000184B1B78984228D0174A126812F4C4
:1033E000806F21D003F07F03012B02D0052B04D086
:1033F00006E00022114B1A6002E00022104B1A6016
:10340000002C0CBF4422602200F07F03012B02D06D
:10341000052B05D008E042F44072084B1A6003E027
:1034200042F44072064B1A60024B18705DF8044B70
:10343000704700BF7487FF1F3480044044A00440DD
:103440001CC00440114B1B7898421ED0104A1268D1
:1034500012F4806F17D013B1152B04D006E00022B0
:103460000C4B1A6002E000220B4B1A6010B11528B9
:1034700005D008E040F21332064B1A6003E040F238
:103480001332054B1A60014B18707047E494FF1F0C
:103490003480044040A0044018C0044010B50D4BD7
:1034A0001B6813F4806F12D021280CD80A4C0B4BE8
:1034B00053F8303023600121FEF786FE2368002296
:1034C0001A70012010BD0020034B186010BD0020B1
:1034D00010BD00BF348004409C94FF1F8456000040
:1034E000114B1B6813F4806F1BD0122804D140F2DB
:1034F00002320E4B1A600DE0142804D140F2023261
:103500000B4B1A6006E00B4B5A7B02F0FE025A731B
:1035100000207047074B5A7B42F001025A7301208A
:1035200070470020704700BF348004400CA0044066
:1035300014C0044000A006402DE9F04107461F4B8F
:103540001B6813F4806F37D01D4B1B680BB1012231
:103550001A701C4B1C780134402C28BF00241A4DD3
:103560001A4EDFF86C8017E0FEF7DAFD40280FDC1A
:10357000337913F0800F0FD02B780133402B28BF05
:10358000002318F80320D2B2F271DBB22B7003E0F3
:10359000FF2801DDFFF7E6FD2B78DBB29C42E3D08C
:1035A000FFB20B4B1F5501220A4B1A70E4B2054BB8
:1035B0001C70BC22054BDA70BDE8F08134800440F9
:1035C0002C95FF1F3095FF1F2995FF1F00A0064077
:1035D000A494FF1FA094FF1F2DE9F84F0746284B26
:1035E0001B6813F4806F49D0264B1B680BB1012276
:1035F0001A7007EB010B5F453DD2DFF89890224E21
:10360000DFF88C80DFF890A099F800400134402C5E
:1036100028BF00243578EDB2A54220D1BC2388F81C
:103620000330FEF77DFD402811DC98F8043013F0DC
:10363000800F10D033780133402B28BF00231AF8B5
:103640000320D2B288F80720DBB2337003E0FF28F2
:1036500001DDFFF787FD3378DBB29D42E1D017F83B
:10366000013B0AF804300122084B1A70E4B289F8D1
:1036700000405F45C8D1BC22054BDA70BDE8F88F29
:10368000348004402C95FF1F2995FF1FA094FF1F35
:1036900000A006403095FF1FA494FF1F10B5064BF5
:1036A0001B7813F0FF0F06D0034CFFF75BFD237868
:1036B00013F0FF0FF9D110BDA094FF1F064B1B782C
:1036C000DBB2064A1278D2B293422CBF3F3202F1EB
:1036D000FF32D01A704700BF3095FF1F2995FF1F9A
:1036E000054B1878C0B2054B1B78DBB2984238BF47
:1036F0004030C01A704700BF2895FF1FA194FF1FDC
:1037000010B4184B1A78D2B2174B1B78DBB29A421E
:1037100018D001333F2B18D81449C85CC0B2DCB2B2
:1037200011490C7012490968C9B19A4203D300E0EB
:103730000023D31A01E04032D31A1A2B0FDC0023E6
:103740000B700CE04FF0FF3009E0084B1878C0B266
:103750000021054B1970064B19680029E8D15DF866
:10376000044B70472895FF1FA194FF1FE894FF1F8B
:103770009C94FF1F094B1A78D2B2094B1B78DBB21D
:103780009A4207D00133402B28BF0023054AD05C62
:10379000C0B270474FF0FF30704700BF2895FF1F41
:1037A000A194FF1FE894FF1F0D4B1B6813F4806F5B
:1037B00014D00C4BDA7802F0CB02DA7040225A7443
:1037C000DA7842F03402DA70074B1A78D2B2074B3B
:1037D0001A70074B1B680BB100221A70704700BFAC
:1037E0003480044000A00640A194FF1F2895FF1FCD
:1037F0009C94FF1F70B43D4B1B7913F0300F33D0F6
:1038000072B63A4B9B7D03F0FF022BB9374BDA7946
:1038100040225A7462B627E062B6354B1978C9B2B5
:10382000344B1C78E4B2314D334EEB79D8B24B1C9B
:10383000402B28BF0023A3421CBFF0541946531E3F
:1038400013F0FF02F1D1CAB2294B1A702B4B1B683F
:1038500053B1A1422EBFC4EB0101C4F140040919C8
:103860002729C4BF01221A70204BDA78D2B212F095
:10387000800F27D01B7913F0800F23D0204B1C78AA
:10388000E4B2204B1B78DBB29C4210D017491E4D8E
:1038900001E0A3420BD00133402B28BF002308795D
:1038A000E85CC0B2C871087DC0B20728F1D9DBB2AC
:1038B00014490B700D4B1B7913F0800F02D07C2143
:1038C0000A4BD97012F0400F0ED0084B1B7913F041
:1038D000400F09D000220D4B1A700D4B1B6803B12D
:1038E0001A703C22014BDA7070BC704700A0064091
:1038F0002895FF1FA194FF1FE894FF1F9C94FF1FB2
:103900003095FF1F2995FF1FA494FF1FA094FF1F50
:103910002C95FF1F254B1A6842F400621A600023A1
:10392000234A1370234A1370234A1370234A1370D7
:10393000234A1370234B1B78092B02D01A2B05D076
:1039400008E040F21332204B1A6003E040F21332D9
:103950001E4B1A601E4B1B780A2B02D01F2B05D062
:1039600008E04FF451721B4B1A6003E04FF45172A0
:10397000194B1A60C0F34432184B1A70C0F3471247
:103980005A7000F01F00987204229A700221D974B4
:103990005A7588221A743C22DA704022104B1A7031
:1039A0004FF40042A3F22B331A6070473480044076
:1039B000A495FF1F3995FF1FAC95FF1FA595FF1F0D
:1039C0003895FF1F7587FF1F0CB0044004D00440DA
:1039D0007687FF1F10B0044000D0044000B00640BE
:1039E0002FE400E0164B9B7803F0EC0300F0030299
:1039F000134310F0040F18BF43F01003104A9370E4
:103A000000F00F03042B04D11346927942F04002D8
:103A10009A710B4B5A7902F0EF0210F0100F18BF99
:103A200042F01002064B5A719B7903F0EF0310F03D
:103A3000200F18BF43F01003014A9371704700BF75
:103A400000B0064010B5224B1B6813F4006F3ED047
:103A5000204B1B7813F0FF0F06D01E4CFFF782FBA4
:103A6000237813F0FF0FF9D14FF400421A4B1A607C
:103A700000221A4BDA701A4B1B78092B02D01A2B32
:103A800005D008E040F20312164B1A6003E040F242
:103A90000312154B1A60154B1B7803F07F030A2B9A
:103AA00002D01F2B05D008E040F20312104B1A6021
:103AB00003E040F203120F4B1A6000230E4A13700A
:103AC0000E4A13700E4B1B680BB101221A7010BD09
:103AD000348004403895FF1F84E100E000B00640C8
:103AE0007587FF1F0CB0044004D004407687FF1F89
:103AF00010B0044000D00440A495FF1F3995FF1F6B
:103B00003495FF1F10B50446094A137813F0FF0FD0
:103B1000FBD120460121FEF757FB20460021FEF78E
:103B20002FFB044B53F83420034B1A6010BD00BF29
:103B30003895FF1F84560000A895FF1F10B40C464F
:103B400009B140F08000184B1B78984228D0174AE2
:103B5000126812F4006F21D003F07F030A2B02D009
:103B60001F2B04D006E00022114B1A6002E0002255
:103B7000104B1A60002C0CBF4422602200F07F031F
:103B80000A2B02D01F2B05D008E042F44072084BEC
:103B90001A6003E042F44072064B1A60024B187040
:103BA0005DF8044B704700BF7687FF1F34800440E8
:103BB00010B0044000D00440124B1B78984220D033
:103BC000114A126812F4006F19D0092B02D01A2B77
:103BD00004D006E000220D4B1A6002E000220C4BDC
:103BE0001A60092802D01A2805D008E040F21332E2
:103BF000064B1A6003E040F21332054B1A60014B8A
:103C0000187070477587FF1F348004400CB0044063
:103C100004D0044010B50D4B1B6813F4006F12D094
:103C200021280CD80A4C0B4B53F83030236001216B
:103C3000FEF7CAFA236800221A70012010BD002086
:103C4000034B186010BD002010BD00BF348004403D
:103C50003495FF1F845600000D4B1B6813F4006F52
:103C600013D017280AD140F202320A4B1A600A4BCD
:103C70005A7B42F001025A7301207047064B5A7B6F
:103C800002F0FE025A73002070470020704700BF08
:103C90003480044008B0044000B006402DE9F041F3
:103CA00007461F4B1B6813F4006F37D01D4B1B6872
:103CB0000BB101221A701C4B1C780134282C28BF30
:103CC00000241A4D1A4EDFF86C8017E0FEF728FA30
:103CD00040280FDC337913F0800F0FD02B7801339D
:103CE000282B28BF002318F80320D2B2F271DBB2D0
:103CF0002B7003E0FF2801DDFFF734FA2B78DBB2ED
:103D00009C42E3D0FFB20B4B1F5501220A4B1A70A5
:103D1000E4B2054B1C70BC22054BDA70BDE8F081A3
:103D200034800440A895FF1FAC95FF1FA595FF1F89
:103D300000B006403C95FF1F3895FF1F2DE9F84F56
:103D40000746284B1B6813F4006F49D0264B1B68AD
:103D50000BB101221A7007EB010B5F453DD2DFF872
:103D60009890224EDFF88C80DFF890A099F8004000
:103D70000134282C28BF00243578EDB2A54220D18B
:103D8000BC2388F80330FEF7CBF9402811DC98F803
:103D9000043013F0800F10D033780133282B28BF64
:103DA00000231AF80320D2B288F80720DBB2337060
:103DB00003E0FF2801DDFFF7D5F93378DBB29D4240
:103DC000E1D017F8013B0AF804300122084B1A70C1
:103DD000E4B289F800405F45C8D1BC22054BDA70D7
:103DE000BDE8F88F34800440A895FF1FA595FF1FFC
:103DF0003895FF1F00B00640AC95FF1F3C95FF1F94
:103E000010B5064B1B7813F0FF0F06D0034CFFF7DD
:103E1000A9F9237813F0FF0FF9D110BD3895FF1FD2
:103E2000064B1B78DBB2064A1278D2B293422CBF03
:103E3000273202F1FF32D01A704700BFAC95FF1F46
:103E4000A595FF1F054B1878C0B2054B1B78DBB258
:103E5000984238BF4030C01A704700BFA495FF1F7A
:103E60003995FF1F10B4184B1A78D2B2174B1B7834
:103E7000DBB29A4218D001333F2B18D81449C85CE2
:103E8000C0B2DCB211490C7012490968C9B19A423A
:103E900003D300E00023D31A01E04032D31A1A2BD7
:103EA0000FDC00230B700CE04FF0FF3009E0084BF3
:103EB0001878C0B20021054B1970064B196800290B
:103EC000E8D15DF8044B7047A495FF1F3995FF1F9B
:103ED0006495FF1F3495FF1F094B1A78D2B2094B26
:103EE0001B78DBB29A4207D00133402B28BF002356
:103EF000054AD05CC0B270474FF0FF30704700BF3A
:103F0000A495FF1F3995FF1F6495FF1F0D4B1B687C
:103F100013F4006F14D00C4BDA7802F0CB02DA7095
:103F200040225A74DA7842F03402DA70074B1A7879
:103F3000D2B2074B1A70074B1B680BB100221A70E4
:103F4000704700BF3480044000B006403995FF1F21
:103F5000A495FF1F3495FF1F70B43D4B1B7913F0E0
:103F6000300F33D072B63A4B9B7D03F0FF022BB972
:103F7000374BDA7940225A7462B627E062B6354B85
:103F80001978C9B2344B1C78E4B2314D334EEB7919
:103F9000D8B24B1C402B28BF0023A3421CBFF054B7
:103FA0001946531E13F0FF02F1D1CAB2294B1A7001
:103FB0002B4B1B6853B1A1422EBFC4EB0101C4F1CE
:103FC000400409192729C4BF01221A70204BDA784E
:103FD000D2B212F0800F27D01B7913F0800F23D0BC
:103FE000204B1C78E4B2204B1B78DBB29C4210D0F3
:103FF00017491E4D01E0A3420BD00133282B28BFE7
:1040000000230879E85CC0B2C871087DC0B20728F7
:10401000F1D9DBB214490B700D4B1B7913F0800FF3
:1040200002D07C210A4BD97012F0400F0ED0084B01
:104030001B7913F0400F09D000220D4B1A700D4B65
:104040001B6803B11A703C22014BDA7070BC7047D8
:1040500000B00640A495FF1F3995FF1F6495FF1F10
:104060003495FF1FAC95FF1FA595FF1F3C95FF1FC3
:104070003895FF1FA895FF1F174B1A6842F480520E
:104080001A600023154A1370154A1370154A1370ED
:10409000154A1370154A137040F21331144A116017
:1040A0004FF4517104321160C0F34431114A117060
:1040B000C0F34711517000F01F0090729370137499
:1040C0002C23D37040220C4B1A704FF40032A3F211
:1040D0002D331A60704700BF348004402096FF1FC4
:1040E000B595FF1F2896FF1F2196FF1FB495FF1F50
:1040F00008C0044000C0064031E400E0164B9B7845
:1041000003F0EC0300F00302134310F0040F18BF98
:1041100043F01003104A937000F00F03042B04D1F6
:104120001346927942F040029A710B4B5A7902F091
:10413000EF0210F0100F18BF42F01002064B5A7138
:104140009B7903F0EF0310F0200F18BF43F010032A
:10415000014A9371704700BF00C0064010B5144B70
:104160001B6813F4805F21D0124B1B7813F0FF0FF4
:1041700006D0104CFEF7F6FF237813F0FF0FF9D1AD
:104180004FF400320C4B1A6000230C4AD37040F2FB
:1041900003120B490A6004310A600A4A13700A4A82
:1041A00013700A4B1B680BB101221A7010BD00BFBF
:1041B00034800440B495FF1F84E100E000C0064055
:1041C00008C004402096FF1FB595FF1FB095FF1F44
:1041D00010B50446094A137813F0FF0FFBD12046AF
:1041E0000121FDF7F1FF20460021FDF7C9FF044B37
:1041F00053F83420034B1A6010BD00BFB495FF1F65
:10420000845600002496FF1F10B40C4609B140F0FC
:104210008000104B1B78984219D00F4A126812F494
:10422000805F12D003F07F03082B02D100220B4BDA
:104230001A60002C0CBF4422602200F07F03082B80
:1042400003D142F44072054B1A60024B18705DF8BE
:10425000044B70477787FF1F348004400CC0044034
:10426000704700BF10B50D4B1B6813F4805F12D070
:1042700021280CD80A4C0B4B53F830302360012115
:10428000FDF7A2FF236800221A70012010BD002054
:10429000034B186010BD002010BD00BF34800440E7
:1042A000B095FF1F845600000D4B1B6813F4805F10
:1042B00013D00E280AD140F202320A4B1A600A4B80
:1042C0005A7B42F001025A7301207047064B5A7B19
:1042D00002F0FE025A73002070470020704700BFB2
:1042E0003480044004C0044000C006402DE9F04181
:1042F00007461F4B1B6813F4805F37D01D4B1B68AC
:104300000BB101221A701C4B1C780134282C28BFD9
:1043100000241A4D1A4EDFF86C8017E0FDF700FFFD
:1043200040280FDC337913F0800F0FD02B78013346
:10433000282B28BF002318F80320D2B2F271DBB279
:104340002B7003E0FF2801DDFEF70CFF2B78DBB2BA
:104350009C42E3D0FFB20B4B1F5501220A4B1A704F
:10436000E4B2054B1C70AC22054BDA70BDE8F0815D
:10437000348004402496FF1F2896FF1F2196FF1FBC
:1043800000C00640B895FF1FB495FF1F38B505461D
:104390000C4629B115F8010BFFF7A8FF013CF9D134
:1043A00038BD00BF10B5064B1B7813F0FF0F06D0C9
:1043B000034CFEF7D7FE237813F0FF0FF9D110BDA1
:1043C000B495FF1F064B1B78DBB2064A1278D2B2B7
:1043D00093422CBF273202F1FF32D01A704700BF40
:1043E0002896FF1F2196FF1F054B1878C0B2054B7A
:1043F0001B78DBB2984238BF4030C01A704700BF0C
:104400002096FF1FB595FF1F10B4184B1A78D2B233
:10441000174B1B78DBB29A4218D001333F2B18D8C8
:104420001449C85CC0B2DCB211490C701249096869
:10443000C9B19A4203D300E00023D31A01E040320D
:10444000D31A1A2B0FDC00230B700CE04FF0FF3057
:1044500009E0084B1878C0B20021054B1970064BD3
:1044600019680029E8D15DF8044B70472096FF1FBA
:10447000B595FF1FE095FF1FB095FF1F094B1A78F8
:10448000D2B2094B1B78DBB29A4207D00133402BE2
:1044900028BF0023054AD05CC0B270474FF0FF3000
:1044A000704700BF2096FF1FB595FF1FE095FF1FC7
:1044B000054B1A78D2B2054B1A70054B1B680BB12D
:1044C00000221A70704700BFB595FF1F2096FF1F8E
:1044D000B095FF1F2F4B1B7913F0200F23D02D4BCE
:1044E000DB79D9B22C4B1B780133402B28BF00233A
:1044F0002A4A1278D2B29A4204D0294AD154D9B267
:10450000254A1170274A116869B1274A1278D2B238
:1045100093422EBFC2EB0303C2F140029B18272B2C
:10452000C4BF01230B701B4BDB78DBB213F0800F91
:104530001CD0184A127912F0800F17D01B4A11783C
:10454000C9B2194A1278D2B2914203D16C21114AF0
:10455000D1700BE00132282A28BF00221449885C60
:10456000C0B20C49C871D2B20F490A7013F0400FA3
:104570000ED0084B1B7913F0400F09D000220D4BD1
:104580001A700D4B1B6803B11A702C22014BDA70A4
:10459000704700BF00C006402096FF1FB595FF1F63
:1045A000E095FF1FB095FF1F2196FF1F2896FF1F64
:1045B000B895FF1FB495FF1F2496FF1F00B585B067
:1045C00072B61B4B70221A7041211A4A11700F21CA
:1045D000013A117080221A701A46137813F0800F76
:1045E000FBD0154B186862B6144B98429CBF00EB89
:1045F0008000400001A90A22FEF7D6FD9DF8043094
:104600007BB908E001A9595C31B1918002320133D4
:104610000A2BF7D100E0002301335B00084A137036
:1046200003E0074A53800123ECE705B05DF804FB83
:104630000000024007000240080002407F969800F8
:104640000488FF1F08B503681B68C9B2984708BDF6
:1046500008B503681B68C9B2984708BD08B5036868
:104660001B68C9B2984708BD08B503681B68C9B282
:10467000984708BD08B54B0803F1376000F5D830FE
:10468000B0FBF1F0FEF7B2FD08BD00BF10B5144657
:104690004B0803F1376000F5D830B0FBF1F0FEF7BE
:1046A000A5FD2046FEF70AFE10BD00BF08B5FEF7C7
:1046B00035FE08BD08B50846FEF76AFE08BD00BF16
:1046C00008B50846FEF7BEFE08BD00BF08B508469F
:1046D0001146FEF779FE08BD08B50846FEF7DEFE76
:1046E000003018BF012008BD08B50846FEF7F8FEE7
:1046F000003018BF012008BD08B5FEF7F1FF08BD66
:1047000008B5FFF737F808BD08B5FEF7F9FF08BD93
:1047100008B5FEF7C3FF08BD08B5FFF745F808BDAB
:1047200008B5FEF7CBFF08BD08B50846FEF704FF45
:10473000012008BD08B50846FEF7FEFE012008BDB1
:1047400010B5144608461146FEF746FF204610BD38
:1047500038B50D46084600F045FD0446284621467A
:10476000FEF73AFF204638BD704700BF044B0022D9
:104770001A714FF47A7199601A73024A1A6070477D
:104780002C96FF1F2058000008B503681B68C9B2AB
:10479000984708BD08B503681B68C9B2984708BDAB
:1047A00008B503681B68C9B2984708BD08B5036817
:1047B0001B68C9B2984708BD08B54B0803F13760BC
:1047C00000F5D830B0FBF1F0FFF7A4F808BD00BF4A
:1047D00010B514464B0803F1376000F5D830B0FB34
:1047E000F1F0FFF797F82046FFF7FCF810BD00BF87
:1047F00008B5FFF727F908BD08B50846FFF782F9A5
:1048000008BD00BF08B50846FFF7D6F908BD00BFD0
:1048100008B508461146FFF791F908BD08B50846E6
:10482000FFF7F8F9003018BF012008BD08B50846A9
:10483000FFF712FA003018BF012008BD08B5FFF7D6
:1048400001FB08BD08B5FFF747FB08BD08B5FFF73A
:1048500009FB08BD08B5FFF7D3FA08BD08B5FFF797
:1048600055FB08BD08B5FFF7DBFA08BD08B50846DB
:10487000FFF714FA012008BD08B50846FFF70EFA45
:10488000012008BD10B5144608461146FFF756FA38
:10489000204610BD38B50D46084600F0A3FC04467E
:1048A00028462146FFF74AFA204638BD704700BF28
:1048B000044B00221A714FF47A7199601A73024AFC
:1048C0001A6070473C96FF1F8058000008B50368C7
:1048D0001B68C9B2984708BD08B503681B68C9B210
:1048E000984708BD08B503681B68C9B2984708BD5A
:1048F00008B503681B68C9B2984708BD08B54B08DE
:1049000003F1B76000F55840B0FBF1F0FFF7B4FBDE
:1049100008BD00BF10B514464B0803F1B76000F5A1
:104920005840B0FBF1F0FFF7A7FB2046FFF7E6FB8E
:1049300010BD00BF08B5FFF711FC08BD08B508465B
:10494000FFF746FC08BD00BF08B50846FFF788FC26
:1049500008BD00BF08B508461146FFF755FC08BD65
:1049600008B50846FFF77EFC003018BF012008BDDF
:1049700008B50846FFF798FC003018BF012008BDB5
:1049800008B5FFF731FD08BD08B5FFF777FD08BD95
:1049900008B5FFF739FD08BD08B5FFF703FD08BDF1
:1049A00008B5FFF785FD08BD08B5FFF70BFD08BD8D
:1049B00008B50846FFF79AFC012008BD08B508466F
:1049C000FFF794FC012008BD10B5144608461146B7
:1049D000FFF7DCFC204610BD38B50D46084600F058
:1049E00001FC044628462146FFF7D0FC204638BD8E
:1049F000704700BF044B00221A714FF47A7199601E
:104A00001A73024A1A6070474C96FF1FE058000064
:104A100003460846194600F001B800BF10B40C4622
:104A200013460146224602205DF8044B00F03CBCD0
:104A300070B50F4E0F4D761BB61007D0043D002405
:104A4000013455F8043F9847A642F9D10A4E0B4D60
:104A5000761B00F075FFB61008D0043D0024013429
:104A600055F8043F9847A642F9D170BD70BD00BF0C
:104A70004C5900004C590000705900004C5900007E
:104A8000024B0146186800F003B800BF488CFF1FB6
:104A90002DE9F04F01F10B05162D83B0064627D9FD
:104AA00035F0070527D4A94225D8304600F00AFB87
:104AB000B5F5FC7F26D2C14F4FEAD50C07EBCC03EE
:104AC000DC689C4200F0D2816368E268A16823F050
:104AD0000303234430465D68CA6045F001059160D8
:104AE0005D6000F0F1FA0834204603B0BDE8F08FB5
:104AF0001025A942D9D900240C232046336003B0E5
:104B0000BDE8F08F5FEA552C00F08A80BCF1040FFD
:104B100000F260814FEA951C0CF1380C4FEA4C0111
:104B2000A64F07EB8101CC68A14205D10CE0002B18
:104B30007ADAE468A14207D0626822F00302531BCC
:104B40000F2BF4DD0CF1FF3C0CF1010C9B4B3C698D
:104B500003F1080E744500F07E81616821F00301C5
:104B60004A1B0F2A00F36481002AC3F814E0C3F83B
:104B700010E06ADAB1F5007F80F03A81C90803EBF2
:104B8000C1004FEAA1085A688168A1604FF001098D
:104B900009FA08F848EA0202E0605A608460CC60D2
:104BA0004FEAAC030120984090425BD8024206D104
:104BB0002CF0030C400002420CF1040CFAD007EB7D
:104BC000CC084446E146E3689C4207D145E1002A0F
:104BD00080F25681DB689C4200F03F81596821F0E9
:104BE00003014A1B0F2AF2DD1C46D3F80CC054F80F
:104BF000088F591945F0010942F00105C3F80490E6
:104C00003046C8F80CC0CCF8088079613961C1F829
:104C10000CE0C1F808E04D608A5000F055FA63E7F7
:104C20007E214FF03F0C7BE72244E3685068A16887
:104C300040F00105CB6030469960556000F044FAC1
:104C40000834204603B0BDE8F08F214430464B685D
:104C500043F001034B6000F037FA0834204603B0FC
:104C6000BDE8F08FBC68636823F00309A94504D34D
:104C7000C5EB09030F2B00F39180514B514A196882
:104C80001368013305EB010A04EB090B00F06181A5
:104C90000AF5805A0AF10F0A2AF47F6A2AF00F0AED
:104CA00030465146019200F011FAB0F1FF3F8046C4
:104CB000019A00F00081834500F2FA80DFF810C10C
:104CC000DCF80030C3455344CCF8003000F04A8192
:104CD00012683C4901321BBFCBEB080B5B44C1F8A7
:104CE0000080CCF8003018F0070300F01381C3F106
:104CF0000802C3F5805390440833C244CAF30B0A38
:104D0000CAEB030A51463046CDF804C000F0DEF984
:104D1000431CDDF804C000F03581C8EB00025244AA
:104D200042F00102DCF80030C7F808805344BC426E
:104D3000C8F80420CCF80030DFF894A015D0B9F101
:104D40000F0F40F2EA806168A9F10C0222F007021D
:104D500001F0010EA118052042EA0E0E0F2AC4F838
:104D600004E04860886000F21181174ABC6811684D
:104D70008B4288BF1360154A11688B4288BF13604D
:104D8000626822F003029542C5EB020301D80F2BA3
:104D900004DC304600F098F90024A5E6621943F0DF
:104DA000010345F0010565603046BA60536000F0CC
:104DB0008BF90834204603B0BDE8F08F4C8CFF1F00
:104DC0006496FF1F5890FF1F6096FF1F5C96FF1FA1
:104DD0006896FF1FBCF1140F61D9BCF1540F00F2AB
:104DE0008F804FEA153C0CF16E0C4FEA4C0197E6B0
:104DF0004B0A042B58D9142B00F2AE8003F15B024E
:104E0000500007EB8000DFF8BC818368834200F02C
:104E10008A805A6822F00302914202D29B6898422B
:104E2000F7D1D9687A68E160A3608C60DC60B7E68E
:104E3000611942F0010745F001056560304659618E
:104E40001961C1F80CE0C1F808E04F608A500834DD
:104E500000F03AF948E65A68A2E609F1010919F0AA
:104E6000030F04F108047FF4AEAE2DE004F1080353
:104E70006469A34208BF0CF1020C3FF467AE23E65D
:104E800019441C464868DB6854F8082F40F00105B7
:104E90004D603046D3609A6000F016F924E60CF1BC
:104EA0005B0C4FEA4C013BE68A0938325000A8E718
:104EB000BC423FF403AFBC68626822F0030262E7C1
:104EC000D8F8008098457BD11CF0030FA8F10803A7
:104ED0000CF1FF3CF4D17B6823EA00037B604000C7
:104EE00098423FF6BFAE00283FF4BCAE0342CC462A
:104EF0007FF465AE400003420CF1040CFAD05EE68C
:104F0000BCF5AA7F1AD84FEAD53C0CF1770C4FEAD2
:104F10004C0105E64FF48053EFE60123C8F8043056
:104F2000444600222FE791100120D8F8042000FA0F
:104F300001F10A43C8F80420194674E740F25453BB
:104F40009C451BD84FEA954C0CF17C0C4FEA4C0168
:104F5000E6E50AF1100AA3E6542B1FD80A0B6E32BD
:104F600050004EE7CBF30B0100297FF4B1AE0AEB02
:104F70000901BA6841F001015160F6E6FC214FF0E9
:104F80007E0CCDE501224FF0000ACBE604F10801CA
:104F9000304600F053FADAF80030E6E6B3F5AA7FBF
:104FA00003D8CA0B773250002BE740F25452934299
:104FB00003D88A0C7C32500023E7FC207E2220E7B5
:104FC0007B688CE74C8CFF1F032A70B428D940EA19
:104FD00001039B0713D005780C78A54224D1013A30
:104FE000002305E010F8015F11F8014FA5421BD125
:104FF000934203F10103F5D1002070BC70470C46C9
:10500000034625681E68AE422146184604F1040492
:1050100003F1040304D1043A032A18462146F0D8C8
:10502000002AD8D11046E8E7281B70BC704700BFA3
:10503000F0B4840743D0541E002A3ED0CDB20346BC
:1050400003E0621E002C38D0144603F8015B9A0777
:10505000F7D1032C2AD9CDB245EA05250F2C45EA14
:10506000054515D9A4F110073F0903F1100606EB19
:1050700007161A46156055609560D5601032B24229
:10508000F8D104F00F040137032C03EB07130DD9FB
:105090001E462246043A032A46F8045BFAD8221F29
:1050A00022F003020432134404F003042CB1C9B209
:1050B0001C4403F8011BA342FBD1F0BC704714460B
:1050C0000346C6E7704700BF704700BF38B5074CBE
:1050D0000023054608462360FDF71AF8431C00D05C
:1050E00038BD2368002BFBD02B6038BDA496FF1F72
:1050F000C9B2F0B4002947D085070FD00278002A42
:105100003FD091423ED0431C05E013F8012B002A0A
:1051100037D0914236D09A071846F6D1036841EA53
:10512000012747EA074783EA0702A2F10135A3F105
:10513000013425EA020224EA0303134313F0803FFB
:1051400011D1021D104652F8043B83EA0704A4F172
:105150000136A3F1013526EA040425EA03032343BB
:1051600013F0803FEED00378002B39D0994209D05C
:10517000431C01E0914205D0184613F8012B002A88
:10518000F8D11046F0BC704784070BD00378002B91
:10519000F8D0431C03E002780133002AF2D09907CB
:1051A0001846F8D10368A3F1013222EA030313F091
:1051B000803F0AD1031D184653F8042BA2F1013198
:1051C00021EA020212F0803FF5D00378002BD9D0FB
:1051D000431C184601330278002AFAD1F0BC70470C
:1051E0001846CFE720F0030110F00300C0F10000E3
:1051F00051F8043B00F1040C4FEACC0C6FF00002B4
:105200001CBF22FA0CF213434FF0010C4CEA0C2C99
:105210004CEA0C4CA3EB0C0222EA030212EACC1279
:1052200004BF51F8043B0430F4D013F0FF0F1FBF4C
:10523000013013F47F4F013013F47F0F18BF01309A
:10524000704700BF40EA01039B0770B42AD1032ACC
:1052500028D90C460346214654F8045BA5F10136D3
:1052600026EA050616F0803F05D1043A032A43F8E2
:10527000045B2146EFD89AB10C781C70013A0133D7
:105280003CB16AB111F8014F03F8014B013A002C0F
:10529000F7D12AB11A44002103F8011B9342FBD134
:1052A00070BC70470346E6E7F0B5274C2668D6F891
:1052B000484185B00746002C41D065681F2D1EDD92
:1052C000224818B94FF0FF3005B0F0BD4FF4C87058
:1052D000039102920193FFF7D3FB0399029A019B7A
:1052E00004460028EED0D6F84851256000206060C2
:1052F0000546C6F84841C4F88801C4F88C013FB996
:10530000AB1C00200135656044F8231005B0F0BDEA
:1053100004EB85004FF0010CC0F88820D4F88861B8
:105320000CFA05F21643022FC4F88861C0F8083160
:10533000E6D1D4F88C311A43C4F88C21E0E706F5A5
:10534000A674C6F84841B8E73C590000814A0000FD
:10535000024B13B1024800F005B87047000000008E
:10536000715300000146002002460346FFF79CBF30
:1053700038B5094D094C641BA41018BF05EB840512
:1053800005D0013C55F8043D9847002CF9D1BDE803
:10539000384000F0EDBA00BF00000000000000003F
:1053A000F8B5234D0F460446FFF78CFEAB685E68E8
:1053B00026F00306F11B01F6EF7121F47F6121F065
:1053C0000F01A1F58057B7F5805F07DB204600216C
:1053D000FFF77CFEAB683344984204D02046FFF7C9
:1053E00073FE0020F8BD20467942FFF76FFE0130C2
:1053F0000DD0104BAA681968F61B46F0010620462E
:10540000C91B56601960FFF75FFE0120F8BD2046FA
:105410000021FFF75BFEAB68C21A0F2ADEDD064DE6
:1054200004492D6842F00102401B5A600860D5E72C
:105430004C8CFF1F6896FF1F5890FF1F2DE9F0410D
:105440000D460646002955D0FFF73CFE55F8041CD2
:10545000DFF874C121F00103A5F10804E218DCF8BB
:1054600008005768904227F0030769D011F0010146
:10547000576032D00021D0194068C00706D43B44A1
:10548000906800294ED0D268C260906043F001025B
:105490006260E350E1B9B3F5007F2DD35A0A042AC4
:1054A0006AD89809383041000CEB810C4649DCF889
:1054B0000820624566D0516821F003018B4202D278
:1054C00092689445F7D1D368E360A2609C60D46091
:1054D0003046BDE8F041FFF7F7BD55F8085C641BA6
:1054E0000CF10808A06840452B4443D0E568C5602E
:1054F000A860C0E7BDE8F081DB080CEBC302012522
:10550000DCF804009168A1609B1005FA03F31843CE
:10551000E260CCF8040094603046CC60BDE8F04115
:10552000FFF7D2BD294DA842ADD143F00102CCF81E
:105530001440CCF81040E060A0606260E350C7E720
:105540001F44CB0707D455F8083CE41A1F44A2684F
:10555000E368D3609A601E4B1B6847F001029F42CC
:105560006260CCF80840B3D31A4B30461968FFF795
:1055700017FFADE701217EE7142A0CD802F15B008A
:10558000410091E74B688010012505FA00F00343C4
:105590004B60134698E7542A03D8180B6E3041002D
:1055A00082E7B2F5AA7F03D8D80B773041007BE7BA
:1055B00040F254518A4203D8980C7C30410073E782
:1055C000FC217E2070E700BF4C8CFF1F548CFF1F16
:1055D0005490FF1F6496FF1F0000000000000000B1
:1055E000FD040000150500005506000041050000FF
:1055F0006D050000A50500002F00FFFFFFFFFFFF66
:1056000000000000000000006D19000031300000B3
:105610007C3C3E5E2B3D3F2F5B5D3B2C2A225C0099
:105620006F7A6F6E65446174612E74787400000047
:105630003A3A3A3A2054696D6520286D73293A2028
:10564000000000002C204E4F3A2000002C204F3349
:105650003A2000002C20504D322E353A2000000018
:105660002C20544D503A20004461746120436F6CEB
:105670006C656374696F6E2046696E6973686564F2
:105680002100FFFF4008FE4340A004404408FE43C1
:1056900044A004400018FE4300C004403000FE4314
:1056A000309004403400FE43349004401C18FE4304
:1056B0001CC004401018FE4310C004400818FE43EC
:1056C00008C004400C18FE430CC004400C10FE43FC
:1056D0000CB004401010FE4310B004401810FE43FC
:1056E00018B004401C10FE431CB004401410FE43CC
:1056F00014B004400418FE4304C004400010FE43EC
:1057000000B004400008FE4300A004400408FE432B
:1057100004A004400C08FE430CA004400808FE430B
:1057200008A004401418FE4314C004401818FE4397
:1057300018C004400410FE4304B004400810FE43A7
:1057400008B004401400FE43149004404C08FE438B
:105750004CA004400420FE4304D004402410FE4327
:1057600024B004402010FE4320B004402810FE4323
:1057700028B004402C10FE432CB004400020FE430F
:1057800000D004404808FE4348A004401000FE43F7
:10579000109004400D0A000000000000000000000E
:1057A0002D31000039310000053100000D310000BD
:1057B000153100001D3100002531000000000000FF
:1057C00000151915000100007887FF1F1200000066
:1057D00000020000A487FF1F430000000003000038
:1057E0000088FF1F00000000010309048C87FF1FD1
:1057F0000000000002030904E887FF1F000000000A
:10580000030309040488FF1F0000000000000000DB
:105810000000000000000000000000000000000088
:105820002947000041470000F946000009470000F1
:105830000147000011470000754600008D4600003A
:10584000AD460000B5460000C1460000CD46000050
:10585000D9460000E9460000194700002147000032
:1058600045460000514600005D46000069460000C4
:105870005147000035470000000000000000000014
:105880006D480000854800003D4800004D4800007C
:105890004548000055480000B9470000D1470000C6
:1058A000F1470000F94700000548000011480000DA
:1058B0001D4800002D4800005D48000065480000BC
:1058C0008947000095470000A1470000AD47000050
:1058D000954800007948000000000000000000002A
:1058E000B1490000C9490000814900009149000008
:1058F0008949000099490000FD4800001549000051
:10590000354900003D490000494900005549000063
:105910006149000071490000A1490000A949000047
:10592000CD480000D9480000E5480000F1480000DB
:10593000D9490000BD490000430000002088FF1F36
:10594000F8B500BFF8BC08BC9E4670475153000034
:1059500035040000B1040000CD0800001111000062
:10596000493100006D470000B1480000F5490000D2
:04597000F8B500BFC7
:1059740000000000FFFFFFFF0A040000A896FF1FBD
:10598400FFFFFFFF01090A081201010102000040A4
:10599400C01683040002010203010000180354002E
:1059A400650065006E00730079006400750069008D
:1059B4006E006F0009024300020100C032090400B6
:1059C4000001020201000524001001052401010167
:1059D4000424020605240600010705820310004082
:1059E40009040100020A0000000705030240000048
:1059F40007058402400000001603550053004200CE
:105A04002000530065007200690061006C00000012
:105A1400040309040C03000000000000000000005F
:105A24000000000000000000000000000000000072
:105A3400000000000C8BFF1F748BFF1FDC8BFF1F0B
:105A44000000000000000000000000000000000052
:105A54000000000000000000000000000000000042
:105A640000000000385900000000000000000000A1
:105A74000000000000000000000000000000000022
:105A84000000000000000000000000000000000012
:105A94000000000000000000000000000000000002
:105AA40000000000000000000000000000000000F2
:105AB40000000000000000000000000000000000E2
:105AC40000000000000000000000000000000000D2
:105AD40000000000000000000100000000000000C1
