:1000000000800020BD0100002D280000F127000025
:10001000F1270000F1270000F1270000F127000080
:10002000F1270000F1270000F12700002D28000033
:100030002D280000F12700002D280000E1270000F6
:100040002D2800002D2800002D2800002D2800005C
:100050002D2800002D2800002D2800002D2800004C
:100060002D2800002D2800002D2800002D2800003C
:100070002D2800002D2800002D2800002D2800002C
:100080002D2800002D2800002D2800002D2800001C
:100090002D2800002D2800002D2800002D2800000C
:1000A0002D2800002D2800002D2800002D280000FC
:1000B0002D2800002D2800002D2800002D280000EC
:1000C0002D2800002D2800002D2800002D280000DC
:1000D0002D2800002D2800002D2800002D280000CC
:1000E0002D2800002D2800002D2800002D280000BC
:1000F0002D280000794000002D280000DD47000079
:100100002D280000594D00002D2800002D2800004A
:100110002D2800002D2800002D2800002D2800008B
:100120002D2800002D2800002D2800002D2800007B
:100130002D2800002D2800002D2800002D2800006B
:100140002D2800002D2800002D2800002D2800005B
:100150002D2800002D2800002D2800002D2800004B
:100160002D280000912C00002D2800002D280000D3
:100170002D2800002D2800002D2800002D2800002B
:100180002D2800002D2800002D2800002D2800001B
:100190002D2800002D2800002D2800002D2800000B
:1001A0002D2800002D2800002D2800002D280000FB
:1001B0002D2800002D2800002D280000574B4CF260
:1001C000205210B51A804DF628121A8000BF00BFC9
:1001D00002F030FB524B4FF010621A60514A9A60A5
:1001E000514ADA60A3F53043203B1A6812F480725A
:1001F00004D14E490A604FF4A8521A604C4B1A7849
:10020000110703D51A7842F008021A70494B4A4C7C
:100210004A482A221A704A4A00239918A14203D256
:10022000195899500433F8E7464B474900228B424E
:1002300002D243F8042BFAE74448454900235A58B0
:100240001A500433B3F5DE7FF9D1424B424A802184
:1002500003F8011B9342FBD1404B3C4A1A60404BD0
:100260008A221A70A3F5805324225A70A0221A7091
:100270009A799207FCD59A79D406FCD4394A9379B5
:1002800003F00C03082B374BF9D103221A714022DB
:100290005A719A799006FCD5324A9179314B4906C8
:1002A000FBD5314A314911600221516020221A7078
:1002B0009A7902F00C020C2AFAD12D4B2D4A1A60C1
:1002C0002D4B2E4A1A6000225A60072243F8042C54
:1002D0002B4AC3F80C2D62B602F09AFB134B1B6835
:1002E000DA0705D5274802F0D7FA274B274A1A60C4
:1002F000274B1B785B0609D5234C244A236893427D
:1003000004D1204802F0C8FA0023236005F092FED1
:1003100002F096FA03F020FAFEE700BF0E20054037
:1003200030800440823F04000100002B14D00340C1
:1003300002D0074000E007407490FF1F34700000B7
:100340006087FF1F7490FF1F4496FF1F0082FF1FEE
:100350000000000000E400E05FE400E008ED00E0E1
:100360000050064000400640448004400000030165
:1003700004800440C010050014E000E0FF76010096
:10038000000020203047BB011CE00340A5C3945A65
:1003900000F00740FFFFFFFFFFFFFFFFFFFFFFFF32
:1003A000FFFFFFFFFFFFFFFFFFFFFFFFFFFFFFFF5D
:1003B000FFFFFFFFFFFFFFFFFFFFFFFFFFFFFFFF4D
:1003C000FFFFFFFFFFFFFFFFFFFFFFFFFFFFFFFF3D
:1003D000FFFFFFFFFFFFFFFFFFFFFFFFFFFFFFFF2D
:1003E000FFFFFFFFFFFFFFFFFFFFFFFFFFFFFFFF1D
:1003F000FFFFFFFFFFFFFFFFFFFFFFFFFFFFFFFF0D
:10040000FFFFFFFFFFFFFFFFFFFFFFFFDEF9FFFF23
:1004100010B5054C237833B9044B13B10448AFF33E
:1004200000800123237010BD7490FF1F00000000A6
:100430003470000008B5064B1BB106480649AFF3FF
:1004400000800648036813B1054B03B1984708BD07
:1004500000000000347000007890FF1F7490FF1FB0
:1004600000000000704700BF10B50D4C23685B68AA
:1004700020460C4908229847204603F089F90A488B
:1004800001F0E0FE23685B68204608490522984792
:10049000204603F07DF9064802F0A4FA10BD00BF23
:1004A0002494FF1FEC6B00009090FF1FF86B00007E
:1004B000A086010008B502480A2101F0C1FE08BD6E
:1004C0009090FF1F10B582B002AB03F8011D0268C7
:1004D000546819460122A04702B010BD10B5044669
:1004E000C3691BB901230371002010BD00201871DE
:1004F000E06992B201F02CF9E3691B7913B1012391
:100500002371002010BD00BF00B583B0C06960B189
:100510000DF10701012200F0B3FE01280CBF9DF888
:1005200007004FF6FF7000B201E04FF0FF3003B05C
:100530005DF804FB30B583B00446C06978B10DF1B5
:100540000701012200F09CFE01280AD19DF8075006
:10055000E069C168013900F04FFF284603E0002040
:1005600001E04FF0FF3003B030BD00BF08B5C069F7
:1005700008B100F079FF08BD2DE9F04104460E46B0
:100580009046002303714FF47A7282600373114B1B
:100590000360242005F076FDE061B8B135460746DA
:1005A00006F1200E3E4628686968AA68EB680FC607
:1005B000103537467545F5D12868306004F10D00D7
:1005C00041460C2206F048F9002363762046BDE838
:1005D000F08100BF286C0000002202714FF47A7194
:1005E0008160027302490160C2614273704700BFBB
:1005F000286C0000014B0360704700BF286C0000AE
:10060000C3690BB1D86870474FF0FF30704700BF27
:10061000C3690BB1986970470020704738B504462C
:10062000C36963B1FFF7F4FF05462046FFF7E8FF13
:10063000281A47F6FF73984228BF184638BD002095
:1006400038BD00BF10B50446C06930B100F038FFB6
:10065000E06905F01FFD0023E36110BDC36923B10C
:100660009879003018BF012070470020704700BF04
:1006700038B504460A46012100F0B4FAB0B104F1DD
:10068000100528462146012201F010FB28B9284612
:100690002146002201F00AFB50B104F1380029463E
:1006A00000F0C4FD003018BF012038BD002038BD67
:1006B000002038BD2DE9F04F99B081469346019353
:1006C00000238DF81C30394A06928DF81E308DF8C3
:1006D00040300F928DF8423006A8103100F0A6FD90
:1006E0005C460FAE06AD4FF02F084FF0000A2CE02D
:1006F00023782F2B01D1013427E03F1BFFB20C2FB1
:1007000028BF0C2702A821463A4606F0A5F818ABE8
:100710003B4403F858AC304600F0D2FE3046294640
:1007200002AA012300F07EFF40B9002389F80430BB
:100730001E4AC9F8002089F8063032E03C442846B9
:1007400000F0BEFE2B4635461E462046414605F0CB
:10075000D9FF07460028CBD1CBEB0404019B1C60DA
:100760002B7989F80430114BC9F800306B7989F87E
:100770000530AB7989F80630AB68C9F80830EB680A
:10078000C9F80C302B69C9F810302B7D89F814306A
:10079000AB69C9F81830EB69C9F81C302B6AC9F885
:1007A0002030484619B0BDE8F08F00BF506C000003
:1007B000F0B5A7B0044615461F4602A801ABFFF7E7
:1007C00079FF01996E18695C19BB9DF80C308DF8A2
:1007D0005430344B14939DF80D308DF855309DF8FE
:1007E0000E308DF85630049B1693059B1793069B8D
:1007F00018939DF81C308DF86430089B1A93099B60
:100800001B930A9B1C93204614A9274AFFF7B4FEAA
:1008100045E000218DF83010224B0B938DF83210FB
:100820009DF80E301BB92046FFF7D6FE37E00BA827
:1008300002A932463B4600F0F5FE18B92046FFF704
:10084000CBFE2CE002A800F03BFE17F0060F03D011
:100850000BA8119900F0D0FD9DF830308DF878305C
:10086000104B1D939DF831308DF879309DF8323062
:100870008DF87A300D9B1F930E9B20930F9B219335
:100880009DF840308DF88830119B2393129B249360
:10089000139B259320461DA93246FFF76DFE204687
:1008A00027B0F0BD506C0000406C0000084B0022E7
:1008B0005A719A719A721A730221196183F8302061
:1008C00083F83C200349996383F83E20704700BFBA
:1008D0009490FF1F506C0000084B1A6842F480622D
:1008E0001A604FF00042DA62FF225A631A46D36A56
:1008F000002BFCDA014B986BC0B2704700C002407D
:1009000010B50446164A174B1A6010F0010F02D0BA
:10091000FFF7E2FF013C052C04D903210023114815
:10092000114A02E06108F9D104E04263023C01335C
:100930008B42FADB4CB10B4A0B48D36A13F0F00F31
:10094000FBD05063936B023CF7D1002907DD054AC9
:10095000D36A13F0F00FFBD0936B0139F8D110BDBF
:1009600000041F8000C00240FFFF0090064B1A6881
:1009700042F480621A604FF00042DA6258631A460D
:10098000D36A002BFCDA704700C0024008B5052886
:100990001ED8DFE800F003080D1115194FF038429A
:1009A0000E4B1A6017E04FF038420C4B1A6012E001
:1009B0000B4A0A4B1A600EE00A4A084B1A600AE01A
:1009C000094A064B1A6006E0084A044B1A6002E026
:1009D000074A024B1A6001F003FA08BDF490FF1FAA
:1009E00000000138011001380320003803200138CD
:1009F0000650003808B50079012101F05DFF114B68
:100A00001B78F3B100220F4B1A700F4B1B78C3B148
:100A100013F0010F03D00D4B1A680D4B1A600A4BEF
:100A20001B7813F0020F03D0084B5A68094B1A6069
:100A3000054B1B7813F0040F03D0044B9A68064B48
:100A40001A6008BDF890FF1F2493FF1F1893FF1F23
:100A500000E100E004E100E008E100E010B5244B13
:100A60001B78002B3ED10122214B1A70214B1A68B2
:100A7000214B1B78002B28D072B61F4B1B7813F02C
:100A8000010F07D01D4B1C681D49096821401D4CF2
:100A900021601960184B1B7813F0020F07D01A4B16
:100AA0001C68174949682140164C61601960124B57
:100AB0001B7813F0040F07D0144B1C681049896889
:100AC0002140104CA160196062B6114BDB68934263
:100AD00008D00F4B0F491960DA6042F080421A616A
:100AE0000D4A1A600079002101F0E6FE10BD00BF3A
:100AF000F890FF1FF490FF1F2493FF1F80E100E098
:100B00000C93FF1F1893FF1F84E100E088E100E0D1
:100B100000C0024001401F0000001F8038B504469D
:100B200083797BB1008940F20123984205D840F2D5
:100B30000225281AFFF7E4FE25812046FFF75AFF19
:100B40000023A37138BD00BF70B582B00E460B4BB9
:100B50001B680093009C094DA4B2FFF7BDFEFF285F
:100B600007D02B680193019B9BB21B1BB342F4DBA4
:100B700001E0012000E0002002B070BD2C93FF1FB7
:100B8000F8B505460F461646FFF7C8FF2846FFF79B
:100B900065FF28464FF49671FFF7D6FF47F04000F7
:100BA000FFF7E4FE182426FA04F0C0B2FFF7DEFED9
:100BB000083C14F1080FF6D127B1082F0CBF87208D
:100BC000FF2000E09520FFF7D1FE0024FFF784FE10
:100BD000E87210F0800F03D00134B4F5807FF5D1B6
:100BE000F8BD00BF2DE9F04F87B004460191002306
:100BF00003738372837143710271854B1B68039386
:100C0000039FBFB21046012101F056FE2079012159
:100C100001F076FE2079012101F04EFE7D4B1A682D
:100C200042F480521A600620FFF7B0FE7A4B1A6831
:100C30007A4B1B78002B28D072B6784B1B7813F0B8
:100C4000010F07D0764B186876490968014076484D
:100C500001601960714B1B7813F0020F07D0734BC2
:100C600018687049496801406F48416019606B4BD2
:100C70001B7813F0040F07D06D4B18686949896819
:100C8000014069488160196062B66A4BDB68934233
:100C900000F0AF80674B68491960DA6042F080422B
:100CA0001A61664A1A60A4E02846FFF75FFE013E1B
:100CB00016F0FF06F8D1594B1B78C3B113F0010FA2
:100CC00003D0594B1A685E4B1A60544B1B7813F0D3
:100CD000020F03D0544B5A685A4B1A604F4B1B7883
:100CE00013F0040F03D0504B9A68574B1A602046FC
:100CF000FFF7B4FE4FF00008DFF814910BE0D9F8CD
:100D000000300493049BDB1B9BB2B3F5FA6F02D94E
:100D10000123637169E0204641464246FFF730FFF8
:100D20000546E0720128EAD1204608214FF4D57229
:100D3000FFF726FF10F0040F02D00123237310E009
:100D40004FF00408FFF7C8FDE07208F1FF3313F01D
:100D5000FF08F7D1AA2802D00223637145E00223DD
:100D60002373237B022B14BF4FF0000A4FF0804AFD
:100D70004FF037094FF00008DFF894B00BE0DBF8D4
:100D800000300593059BDB1B9BB2B3F5FA6F02D9CC
:100D90000823637129E0204649464246FFF7F0FEEA
:100DA000204629215246FFF7EBFEE0720028E6D1EB
:100DB000237B022B11D120463A210022FFF7E0FECF
:100DC00010B10623637110E0FFF786FD00F0C0004C
:100DD000C02811D1032323730EE02046FFF70AFE3B
:100DE0000198FFF7D3FD2E460DE02046FFF702FEE7
:100DF00009E00A26FF2557E7FFF76EFDFFF76CFDB8
:100E0000FFF76AFDE9E7304607B0BDE8F08F00BFA5
:100E10002C93FF1F3C800440F490FF1F2493FF1F7E
:100E200080E100E00C93FF1F1893FF1F84E100E0B6
:100E300088E100E000C0024001401F0000001F8068
:100E400000E100E004E100E008E100E070B582B0FC
:100E50000446114B1B680093009D0F4EADB20AE093
:100E600033680193019B9BB25B1BB3F5967F02DD58
:100E70000F23637108E0FFF72FFDE072FF28EFD02A
:100E8000FE2806D00D2363712046FFF7B3FD002036
:100E900000E0012002B070BD2C93FF1FF8B505469D
:100EA0000C4617461E46002B00F089801344B3F50C
:100EB000007F7FDC83792BB103688B4202D10389E9
:100EC000934216D92C602B7B032B18BF6402284653
:100ED00011212246FFF754FE10B103236B7169E024
:100EE0002846FFF7B3FF002864D000232B8101239D
:100EF000AB713846FFF704FD3046334A334B1A6076
:100F000016F0010F07D0069A541CFFF7E5FC069B6C
:100F10001870701E0694052804D9032700232B4956
:100F20002B4A02E04708F9D103E04A6301339F42AC
:100F3000FBDCA0EB4700069A1044824219D214460B
:100F40002249DFF88CC0CA6A12F0F00FFBD0C1F85A
:100F500034C08B6BC3F30722227063700234A0424B
:100F6000F1D8069AD343034423F0010302331A4411
:100F7000069200EB4700069B98420DD91C46134988
:100F8000CA6A12F0F00FFBD08B6BC3F307222270FA
:100F900063700234A042F3D82B8933449BB22B8177
:100FA000AA7A12B1B3F5007F0BD32846FFF7B6FD3E
:100FB0000120F8BD2846FFF71DFD0020F8BD0120E7
:100FC000F8BD0120F8BD00BF00041F8000C0024032
:100FD000FFFF009000B583B0009200224FF4007331
:100FE000FFF75CFF03B05DF804FB00BFF8B50646F1
:100FF000214B186840F4806018604FF00040D862C0
:101000005963114602F500770446DA6A002A0FDBBD
:10101000FBE7DA6A002A14DBFBE7D36A002B1CDB50
:10102000FBE7112373713046FFF7E4FC0020F8BDA5
:1010300008460A781D6845F480651D60DC625A63C5
:10104000E7E742781D6845F480651D60DC625A63FD
:101050000231B942D9D1084ADFE7FF20FFF786FC09
:10106000FF20FFF783FCFFF737FCF07200F01F0052
:101070000528D6D10120F8BD00C0024038B504468D
:1010800015460B4611B9122343712BE0027B032A4C
:1010900018BF4B0218211A46FFF772FD10B1042346
:1010A00063711FE02046FE212A46FFF79FFFC8B16B
:1010B00020464FF41671FFF747FD10B915236371F1
:1010C00010E020460D210022FFF75AFD10B9FFF76E
:1010D00003FC10B11423637104E02046FFF78AFC7F
:1010E000012038BD2046FFF785FC002038BD00BF39
:1010F000014A024B1A60704701100138F490FF1F3B
:1011000010B50446006A012104F1080200F044FD14
:10111000034650B1E3693BB9A368E361637963F0C7
:101120007F036371012300E00123184610BD00BF57
:1011300070B50646FFF7E4FF0346E0B1336AB268D4
:10114000023A197C02FA01F55A6915441C794CB12E
:10115000013D281900F056FC034660B1013C14F033
:10116000FF04F6D1336A1B7C4FF400729A40B369D6
:101170001344B3610123184670BD00BF10B5044687
:10118000006900F01BFC20B1207D034B03EB4010F5
:1011900010BD002010BD00BF0891FF1F2DE9F00118
:1011A00000232022CA5401330B2BFBD10138002528
:1011B00007264FF008084FF00A0C1B4F21E02E2C99
:1011C00001D03A4606E00A2E24D04546664618E08D
:1011D000A34221D012F8013F002BF9D1AE421DD31A
:1011E000A4F12103DBB25D2B1AD86B1CDBB20D44DA
:1011F000A4F16102D2B2192A9CBF203CE4B22C7047
:101200001D4610F8014F002CD9D10878203818BF9E
:10121000012006E0002004E0002002E0002000E0C1
:101220000020BDE8F0017047576C000038B5044657
:101230000D4683790BBB91F82020102A07D1022399
:1012400083710023C3614B8C5B0183610CE0202A16
:1012500014D103238371496AC161284604F118023D
:1012600000F026FC034648B1256201236371002289
:10127000A260E2602261227500E00023184638BDBA
:101280002DE9F04F85B00446884603928379002B00
:1012900069D0437913F0010F68D08269C368D11A0D
:1012A0000398884201D98BB20393039B002B57D03C
:1012B0001E46DFF8FCA0DFF8FC90DFF8FCB0E36826
:1012C000C3F30807A279022A04D1226A516A01EB0A
:1012D00053211BE0206A0579013D05EA5325EDB253
:1012E0005FB955B913B9E369A36006E0224652F825
:1012F000081F00F0A7FB00283BD0226AA368023B2E
:10130000117C03FA01F1526911442944C7F50073B5
:101310009E42C6BF1D46ADB23546637913F0400FFD
:1013200002D1B5F5007F39D1D9F8003099422AD1E0
:1013300034E0A8440DE057447819874209D03B4671
:10134000424613F8011B02F8011B8342F9D1C71B67
:10135000B844E3682B44E360761BB6B2002EAED1EE
:10136000039B98B20DE04FF6FF700AE04FF6FF7056
:1013700007E04FF6FF7004E04FF6FF7001E04FF614
:10138000FF7000B211E0CDF80080DBF800003A46B3
:101390002B46FFF783FD0028CBD1EDE7084600215F
:1013A00000F00CFB0028C6D1E9E705B0BDE8F08FDE
:1013B0000891FF1F6087FF1F0491FF1F30B583B0A6
:1013C00004468379012B0FD9C5680DF1070101226D
:1013D000FFF756FF012809D1E3681F33E36005F4E6
:1013E000F070044B184402E0002000E0002003B03D
:1013F00030BD00BF0891FF1FF8B504460F46837942
:101400007BB382698A422BD3022B02D1E160012394
:1014100027E021B900238360C360012321E0C36872
:10142000026A157C09355A1EEA40013921FA05F590
:10143000AA4200D813B9E369A3600AE0AD1A08E034
:10144000206AA168324600F0FDFA013D034610B95A
:1014500007E004F10806002DF2D1E760012300E067
:1014600000231846F8BD00BF38B50446807918B38C
:1014700094F90530002B1BDA20460121FFF77EFE90
:101480000546C0B1A379012B9CBFA369C361A38B9F
:101490004383E38B8382094B1B682BB1183005F122
:1014A000160198472B8B6B82637903F07F0363717E
:1014B00000F058FA38BD002038BD00BFFC90FF1F77
:1014C00010B50446FFF7D0FF034610B10023A37107
:1014D0000123184610BD00BFF0B583B004460D4689
:1014E0008379012B4ED1427902F0020202F0FF0112
:1014F000002A49D08269AA4248D3002A47D0C66848
:101500002946FFF779FF0346002840D04DB9206AED
:10151000E16900F0A5FB0346002838D00023E36111
:101520001DE0206AA16801AA00F08CFAA8B1206A27
:10153000019990F820704FF6F872164B102F08BFE3
:10154000134699420BD200F08BFB30B1206AA168A0
:101550006FF0704200F0D8FA08B9002317E0A561D7
:10156000637963F07F0363712046FFF77DFF0346D5
:1015700068B12046B54234BF29463146FFF73CFFEB
:10158000034604E0002302E00B4600E00023184677
:1015900003B0F0BDF8FFFF0F38B5044615461F4BEA
:1015A00003EB4113DA7A12F0110F02D015F0420F5B
:1015B0002CD121751A4A12682261998A0904E161C5
:1015C0005A8B1143E161D87A10F0180004D1DB691D
:1015D000A3610123A3710AE0102819D1206A04F144
:1015E000180200F065FA0346A8B10423A37105F0C0
:1015F0000F0363710023A360E36015F0400F09D06F
:1016000020461946FFF768FF034604E0002302E086
:10161000002300E00123184638BD00BF0891FF1FDA
:101620006087FF1F2DE9F04F85B005460C469A46AE
:101630008679002E7FD1104601A9FFF7AFFD002863
:101640007BD0236A2B620027A760E760DFF8FC905D
:101650004FF0010825E0C1F3431B2046FFF7AEFE23
:10166000014600286AD003780BB1E52B09D12FB9C8
:1016700085F814B0D9F800302B6147460B7883B950
:1016800013E001A80B2204F0A9FF50B90AF03003BF
:10169000302B53D0284659465246FFF77DFF064669
:1016A0004CE0E168A3699942D5D30AF01203122BEA
:1016B00044D137B128460121FFF760FD044660B9E7
:1016C0003CE0A379022B39D02046FFF731FD0646D6
:1016D000002833D000232B751A4C204600212022ED
:1016E00004F0B0FF01AB03CB206061601A889B78E7
:1016F0002281A372144B1B682BB104F1100004F17A
:101700000E01984707E021232374282363740023E4
:10171000A3730823E373238A63822383E389E38229
:1017200000F020F9064648B12846297D5246FFF7C9
:1017300033FF064602E0002600E00646304605B0CC
:10174000BDE8F08F0891FF1FFC90FF1F6087FF1F0F
:101750002DE9F04F85B00446884601928379012B2C
:1017600040F0BE80437913F0020F00F0B98013F00F
:10177000040F08D08169C3688B4204D0FFF73CFE98
:10178000002800F0AD80019A002A00F08C801646F7
:10179000DFF8B0A1DFF8B0B1206AE76890F80490F4
:1017A00009F1FF3909EA5729C7F3080719F0FF09BA
:1017B00029D1002F40F0AA80A16851B9E36933B95B
:1017C0002046FFF79DFC002840F08E8088E0A36053
:1017D0008AE003AA00F036F9002800F0A880039BF5
:1017E000226A92F820004FF6F871524A102808BF7A
:1017F0000A46934205D32046FFF782FC002873D1A6
:101800006EE0A36070E0C7F50075ADB2AE4238BFC0
:101810003546A368023B027C9340426913449944D5
:10182000B5F5007F12D1DBF800304B4504BF4FF017
:10183000FF33CBF80030404B186849464246FFF76B
:101840001DFC00284CD008F5007824E07FB9E26840
:10185000A3699A420BD300F085F8002840D0CBF85A
:101860000090364A137843F00103137005E04846B0
:10187000012100F0A3F8002832D05744781987429C
:1018800009D03B46424612F8011B03F8011B834274
:10189000F9D1C71BB844761BB6B2E3681D44E560B6
:1018A000002E7FF479AFE368A269934205D9A36162
:1018B000637963F07F03637108E0214B1B682BB1F0
:1018C000019B1BB1637963F07F036371637913F04C
:1018D000080F03D02046FFF7C7FD08B1019826E0A6
:1018E00001232371002022E0B6F5007F34BF354686
:1018F0004FF40075236AA268023A197C02FA01F9D2
:101900005B699944B5F5007FA1D18CE7C7F50075F7
:10191000ADB2AE4238BF3546A368023B027C03FA43
:1019200002F943699944B5F5007FA0D17BE705B082
:10193000BDE8F08FF8FFFF0F0491FF1F0893FF1F12
:10194000FC90FF1F0891FF1F6087FF1F00B583B049
:1019500002AB03F8011D19460122FFF7F9FE03B09F
:101960005DF804FB08B5104B1B78D3B10F4B18681A
:101970000F4B19680F4AFFF781FB034690B10E4BDE
:10198000196849B1094B18680A4AFFF777FB034603
:1019900040B10022084B1A600022034B1A70012349
:1019A00000E00123184608BD0893FF1F0491FF1FA4
:1019B0006087FF1F0891FF1F0091FF1F38B5044685
:1019C0000D460C4B1B6883420DD0FFF7CBFF03463F
:1019D00070B1094B18682146084AFFF7FBFA034625
:1019E00030B1044B1C60064B1A7815431D7001235F
:1019F000184638BD6087FF1F0491FF1F0891FF1F25
:101A00000893FF1F10B50446FFF7ACFF034680B1F3
:101A100009494B1E01F2FF11002203F8012F8B42EE
:101A2000FBD1064B1C60064B1A7842F001021A707B
:101A30000123184610BD00BF0891FF1F6087FF1FDC
:101A40000893FF1F70B504460D461646C368013360
:101A50008B4225D3C36990F82020102A0CBF080AB6
:101A6000C8091844104B1B68984204D00021FFF7A6
:101A7000A5FF0346A8B194F82030102B06D1EDB293
:101A80000A4B33F81530336001230AE005F07F0577
:101A9000064B53F8253023F070433360012300E0F8
:101AA0000023184670BD00BF6087FF1F0891FF1F0D
:101AB0002DE9F04383B0044602AE46F8041D91467A
:101AC00000254FF400780F4F204601993246FFF76A
:101AD000B9FF034688B1237C08FA03F31D4494F848
:101AE00020104FF6F873102914BF39461946019B90
:101AF0008B42E9D3C9F800500123184603B0BDE872
:101B0000F08300BFF8FFFF0FF8B504460D461746F7
:101B1000012931D9C368013399422FD8C36990F89C
:101B20002020102A0CBF0E0ACE091E44164B1B683B
:101B30009E4205D030460021FFF740FF034600B328
:101B400094F82030102B04D1EDB2104B23F815700F
:101B500004E005F07F050D4B43F825700C4B1A7817
:101B600042F001021A70237E012B09D9A3681E449A
:101B7000084B1E60012304E0002302E0002300E084
:101B800001231846F8BD00BF6087FF1F0891FF1FA3
:101B90000893FF1F0091FF1F2DE9F04F85B0064607
:101BA0008A46009217681FB101370023019305E0B0
:101BB0000768012914BF002301230193F36803F18F
:101BC0000108DBB13C4600254FF00209CB46A04599
:101BD0003CBF4C465F463046214603AAFFF732FF22
:101BE00060B1039B0BB1671C03E0631CDB1B534517
:101BF00006D001350134F368AB42E8D800232AE06F
:101C0000304621466FF07042FFF77EFF034648B929
:101C100021E0651E304629462246FFF775FF034640
:101C200018B918E0BC42F4D803E0BD4201D92C46F3
:101C3000EFE7009B196829B130463A46FFF764FF89
:101C4000034640B1009B1F60019B1BB10137376009
:101C5000012300E00123184605B0BDE8F08F00BF66
:101C6000F0B583B005460C460223036000260E4FF4
:101C70002846214601AAFFF7E5FE80B12846214605
:101C80003246FFF741FF50B1019C95F820104FF606
:101C9000F873102918BF3B469C42E9D301E00020AD
:101CA00000E0012003B0F0BDF8FFFF0FF8B50546D6
:101CB000494B19601446DAB1042A7FD80020014646
:101CC000FFF77CFE0346002800F08380434B03EBC4
:101CD000041494F8AE3104F5D47413F07F036FD17B
:101CE000D4F81210632974D9D4F80E400CB970E0FE
:101CF000002420460021FFF761FE0346002868D03B
:101D0000364BB3F80B30B3F5007F5BD1334B1B7C04
:101D1000002B5ED0314AD289002A55D02F4A517B00
:101D2000002953D02B76297100232B74012003E066
:101D30005A1C2A74072B4BD82B7C1E4600FA03F240
:101D40009142F5D1254BD98A01B9596AA960234B33
:101D5000DA892244EA61B3F8110087B268841B7CF7
:101D600003FB01236B627A0102F2FF1203EB622391
:101D70006B611A4AB2F813200AB9184A126AE31AB8
:101D8000134423FA06F6EE6040F6F4739E4204D83C
:101D90000C2385F8203001231BE04FF6F4739E429C
:101DA00004D8102385F82030012312E00B4BDB6AA6
:101DB0006B62202385F8203001230AE0002308E02D
:101DC000002306E0002304E0002302E00B4600E0CD
:101DD00000231846F8BD00BF0491FF1F0891FF1FA4
:101DE000184B1A6842F480521A60174B174A1A604F
:101DF000174ADA6002F180421A61164A1A60164BDD
:101E00001B7813F0010F07BF4FF41072134B4FF400
:101E10000072134B1A60104B1B7813F0020F4FF433
:101E200000720CBF0F4B104B1A600B4B1B7813F05A
:101E3000040F07BF4FF410720C4B4FF400720C4BA1
:101E40001A6070473C80044000C0024001401F00FF
:101E50000110003800001F802194FF1F18B00440BB
:101E600008C004401CB004400CC0044014B004403E
:101E700004C0044038B504460D46C8B2012100F044
:101E80003FFD2560204638BD08B50078012100F0EF
:101E900013FD08BD10B504460160C8B2002100F072
:101EA0002FFD204610BD00BF10B582B0044600785B
:101EB00000F004FC03F040FB02460B46C4E9022399
:101EC00002210091084801F0BBFCD4E9020104A3FF
:101ED000D3E9002303F096FBC4E9060102B010BD6C
:101EE000000000A0016D6A3F2494FF1FAFF3008043
:101EF000F8B50646134BD3E90001134BD3E9002391
:101F000003F080FB04460D46C6E904453046FFF762
:101F1000CBFF06460F4600200C4922462B4603F015
:101F20009BFC04460D4630463946094BD3E9002355
:101F300003F0B4F902460B462046294603F062FB43
:101F4000F8BD00BF6887FF1F7887FF1F0000F03FC4
:101F50007087FF1F10B504460160C8B2002100F071
:101F6000CFFC204610BD00BF10B50446007800F03D
:101F7000A5FB03F0E1FAC4E9060110BD08B5FFF7BF
:101F8000F3FF08BD38B50446154601606260C8B26B
:101F9000002100F0B5FCE8B2012100F0B1FC2046C0
:101FA00038BD00BFFFFFFFFF10B504464FF40C51D2
:101FB00001397FF4FDAF1046194600220E4B03F0A5
:101FC00021FB09A3D3E9002303F01CFB08A3D3E9F9
:101FD000002303F063F90022084B03F013FBC4E96C
:101FE000080110BDAFF30080000000608FC2C53F44
:101FF000000000A09999B93F0000743F00408F4055
:1020000030B583B00446007800F058FB03F094FA32
:1020100002460B46C4E902230B4D022100912846DB
:1020200001F00EFC284601F0B3FB2046D4E9022360
:10203000FFF7BAFFC4E904014FF47A7000F0D2FC54
:10204000D4E9040103B030BD2494FF1F38B5044621
:102050000D46FEF7C1FA6562002384F8283084F843
:102060002930204638BD00BF30B589B0044622482B
:102070000A21FEF7FDFA10B994F828003AE001238E
:1020800084F8283068461C491C4A1323FEF790FB4D
:102090009DF804302371029BA3609DF80C302373DC
:1020A00008AB53F8135D58689968C4F80D50C4F82C
:1020B0001100C4F815101B7B6376079BE36168462B
:1020C000FEF798FA2046FEF7C9FA10B994F82900ED
:1020D00010E0012384F82930094D284694F828108F
:1020E00001F0A2FB284601F053FB94F8290008B147
:1020F00094F8280009B030BD9490FF1F686C000070
:102100002494FF1F30B583B00446154601F08CFBC4
:1021100023685B68204624491022984720462946B8
:1021200001F082FB23685B6820462049062298471D
:10213000022500952046DDE9062301F081FB236896
:102140005B6820461A490622984700952046DDE93B
:10215000082301F075FB23685B68204615490822B7
:10216000984700952046DDE90A2301F069FB2368C2
:102170005B68204610490922984700952046DDE912
:102180000C2301F05DFB23685B6820460B490722A6
:10219000984700952046DDE90E2301F051FB2046CB
:1021A00001F0F6FA03B030BD746C0000886C0000DA
:1021B000906C0000986C0000A46C0000B06C0000F3
:1021C00010B5044603685B68094900229847204619
:1021D00001F0DEFA23685B68204606491922984719
:1021E000204601F0D5FA2046FEF72CFA10BD00BFBC
:1021F000846C0000B86C0000F0B40E4A02600A79EA
:1022000002710D4A02608A6882600A7B027302468C
:102210000A4C42F80D4B0C4654F80D7F6668A568D1
:10222000C0F80D7056609560247B1473CA69C26152
:10223000F0BC7047506E0000086C0000286C000075
:10224000704700BF2DE9F04FE5B016A80E21FFF74B
:1022500021FE1EA8122100F0EBF811A80321FFF7C0
:1022600009FE36A805211122FFF78CFE41A80A219C
:10227000FFF7ECFE26A81021FFF76CFE2EA80F2119
:10228000FFF768FE644B1B681293129F41A8FFF78B
:10229000EBFE0324614D624E4CA841A9FFF7ACFF51
:1022A0004CA8FEF7DBF9002864D1002C6ED1A3E026
:1022B000002C7CD08CE02B681393139A0F9216A8F5
:1022C000FFF716FECDE90A0126A8FFF757FECDE974
:1022D0000C012EA8FFF752FE82468B4636A8FFF768
:1022E0008FFE804689461EA800F0CAF8DDE90A2361
:1022F000CDE90023DDE90C23CDE90223CDE904ABD0
:10230000CDE90689CDE9080141A821460F9BDA1BDA
:10231000FFF7F8FE013433685B6830464149062216
:1023200098472B68149314993046C91B0A2200233E
:1023300001F03EFA304601F02BFA2B681593159AFE
:10234000D21B47F22F539A420DD85CA841A9FFF740
:1023500053FF5CA8FEF782F980465CA8FEF74AF9B5
:10236000B8F1000FA7D141A8FFF72AFF41A8FEF757
:1023700041F94EE04CA8FEF73DF954A841A9FFF7FA
:102380003BFF54A8FEF76AF910BB91E74CA8FEF793
:1023900031F941A8FFF768FE013C2B685B682846CD
:1023A00031460E229847284601F0F2F974E754A806
:1023B000FEF720F9194C23685B6820461A4906226B
:1023C0009847204601F0E4F941A8FEF713F920E010
:1023D00054A8FEF70FF9114C23685B682046134997
:1023E0000C229847204601F0D3F911A8FFF74CFDC5
:1023F0000124094D094EA0E74CA8FEF7FBF854A8AC
:1024000041A9FFF7F9FE54A8FEF728F90028DFD10B
:10241000CDE765B0BDE8F08F2C93FF1F2494FF1F1C
:10242000DC6C0000D46C0000EC6C0000F46C00006C
:1024300010B504460160C8B2002100F061FA2046E0
:1024400010BD00BF10B50446084603F04FFC094913
:1024500003F0A0FC03F082F8C4E902010022064B5D
:1024600002F01CFF0022054B03F0CCF8C4E9040184
:1024700010BD00BF0D68533B0000E03F0000594015
:1024800038B50446007800F019F9054603F054F811
:10249000C4E9060120462946FFF7D4FF38BD00BF36
:1024A00030B4394A3949136813F0800FFBD10B68F7
:1024B00013F0800FF7D172B6354B1B78002B5FD02D
:1024C000344B1C6804331D680433186804331968DE
:1024D00004331A6804331B682C44204401440A4422
:1024E0001A44C2F34E0242F400422B4B1A602C33C2
:1024F0001C6804331D6804331868043319680433F6
:102500001A6804331B682C44204401440A441A44CA
:10251000C2F34E0242F40042204B1A6003F108134A
:102520001C6804331D6804331868043319680433C5
:102530001A6804331B682C44204401440A441A449A
:10254000C2F34E0242F40042154B1A602C331C6851
:1025500004331D68043318680433196804331A6897
:1025600004331B682C44204401440A441A44C2F337
:102570004E0242F400420B4B1A600022044B1A70C8
:1025800062B630BC704700BF24B0034024B00B409B
:102590002693FF1F38B003402CB0034030B00340F7
:1025A0002CB00B4030B00B4060223A4B1A70E12245
:1025B00001331A70384B1B78082B10D1012203F11C
:1025C000804303F56C331A60132334490B6001F523
:1025D000FF2101F2FC710A60314A13601FE00A2BEF
:1025E0000DD139222F4B1A6013232C490B6001F5B2
:1025F000FF2101F2FC710A60294A13600FE00C2BE5
:102600000CBF35223D22274B1A60122323490B6051
:1026100001F5FF2101F2FC710A60214A1360224B8F
:102620001B7833B10123214A136002F500221360A5
:1026300005E000231D4A136002F5002213601C4BC5
:102640001B78012B06D880231A4A136002F500225A
:1026500013601AE0042B06D88423164A136002F58F
:102660000022136011E0082B06D88523114A13605D
:1026700002F50022136008E0102B94BF8623872305
:102680000C4A136002F50022136001220A4B1A70F3
:10269000704700BF004007408087FF1F0CB0034019
:1026A0000CB00B4008B003402993FF1F20B003403B
:1026B0008187FF1F24B003402693FF1F2DE9F843B5
:1026C000282873D83C4B1E5CFF2E72D03B4B1B78E6
:1026D0000BB1FFF7E5FE16F0800F29D172B6384C2A
:1026E000384D4FF0010726602F7062B672B623682E
:1026F00013F0800F04D12B7813F0FF0F0FD1F2E706
:10270000314B186800222F4B1A7062B62F4B1B7882
:102710001841BDE8F8832B7813F0FF0FE3D062B6C1
:1027200001F062F972B6236813F0800FF3D0E7E787
:1027300072B606F040095FFA89F9254F254C06F07C
:102740003F06254D4FF00108B9F1000F04D03B685A
:1027500023F010033B6003E03B6843F010033B6051
:10276000266085F8008062B672B6236813F0800F89
:1027700004D12B7813F0FF0F0FD1E5E7174B186842
:102780000022154B1A7062B6104B1B781841BDE839
:10279000F8832B7813F0FF0FD6D062B601F024F93E
:1027A00072B6236813F0800FF3D0E7E70020BDE88E
:1027B000F8830020BDE8F883046D00002693FF1F16
:1027C00000B003402893FF1F10B003402593FF1F64
:1027D0000CB00B4000B00B402793FF1F10B00B4014
:1027E000024B1A6801321A60704700BF2C93FF1F1A
:1027F00008B50D4C236813F4802F01D000F048FA7F
:10280000236813F4806F01D001F036FC236813F4C1
:10281000006F01D001F0E2FF236813F4805FE9D07C
:1028200002F09AFAE6E700BF3480044008B5FFF7EB
:10283000DFFF00BF1022014B1A80704700200540C7
:10284000704700BF024A136818441060184670476A
:102850008487FF1FFEE700BFEFF31383ABB9EFF3ED
:102860001083ABB9EFF3058323B10F2B05D9094AC8
:10287000985C03E04FF4807000E00020EFF31183D8
:102880003BB1834238BF184670474FF0FF30704766
:1028900000207047F0E300E0044B00221A60044976
:1028A0000A60044A106010221A60704714D0034076
:1028B00004D0034000D0034021281ED80F4B53F80A
:1028C000303093F8802212F0FF0F08D019B10122A6
:1028D00083F880207047012283F800217047074B5E
:1028E00003EBC000436821B11A6842F003021A608A
:1028F00070471A6822F002021A607047306D0000BB
:1029000021284AD8254B03EBC0035B68012911D06D
:1029100004291DD0214A52F83020002082F880027C
:1029200000292FD0022931D003291FD040F20312F1
:102930001A607047194A52F83020012182F880123B
:102940004FF4A2721A601A6822F020021A607047CF
:10295000124A52F83020012182F880124FF4A272FC
:102960001A601A6842F020021A6070474FF48072B1
:102970001A601A6842F002021A601A6822F0010214
:102980001A6070474FF480721A6070474FF480727B
:102990001A601A6842F003021A607047306D000036
:1029A00072B60C4B1B680C4A12680C49096862B677
:1029B00011F0806F02D0322B88BF0132C3F5BB33D8
:1029C000FF330749A1FB03039B094FF47A7000FB17
:1029D0000230704718E000E02C93FF1F04ED00E088
:1029E000ABAAAAAA38B50546FFF7DAFF044625B90F
:1029F00038BD013D0AD004F57A74FFF7D1FF001B02
:102A0000B0F57A7FF5D200F0EFFFF6E738BD00BFF2
:102A100010B5264B4FF400021A604FF080721A6016
:102A20004FF000721A604FF080621A604FF000623F
:102A30001A6000201E4B18604BF6FF7104331960BA
:102A400028231C4A136008321360083213600832CE
:102A500013600832136008321360083213600832C2
:102A600013600922144C226004F580540434206061
:102A7000043421600434236008342360143C226051
:102A800004F5FE24043420600C4801600C490B60FE
:102A900008310B600B4B1A60FFF786FD4FF4C870CE
:102AA000FFF7A0FF00F074FC10BD00BF08E100E0DC
:102AB000048003400C8003400080034008800B40EA
:102AC0000C800B4000800B4030B40E4B1B7843F061
:102AD00002020D4C04EBC20460600C480078002830
:102AE0000CBF8824C82444EA0141074D45F8321040
:102AF00080F00100054A107083F00103014A137051
:102B000030BC70479893FF1F0080FF1F1194FF1F78
:102B100010B4431E032B11D872B60A4A52F8230090
:102B200050B14268074941F82320074A32F8134060
:102B30000188611A22F8131062B600E000205DF8E7
:102B4000044B70478893FF1F2C96FF1F0138032802
:102B50000DD872B6074B53F820302BB1002001304E
:102B60005B68002BFBD100E0002062B670470020BC
:102B7000704700BFDC93FF1F38B572B601231B49B5
:102B80001B4C5A1812F8012C12F0080F24D09A008E
:102B900054F832506DB9164B03EBC201083048604F
:102BA000144943F83210144B1A78013A1A7062B67D
:102BB00038BD42F0010254F832506DB90C4B03EBB2
:102BC000C201083048600D4943F832100A4B1A78A8
:102BD000013A1A7062B638BD0133052BD1D162B605
:102BE0000022054B1A7000F037FC38BD806E0000E3
:102BF0000080FF1F880040000694FF1FC8004000AF
:102C000010B4431E032B37D8400140F010001C4A7B
:102C1000104472B61B4AD25C032A09D8DFE802F0DE
:102C200019021B050830022216E00830042213E0C6
:102C3000154A52F823201AB9134A42F8231003E028
:102C4000124A52F823205160104A42F8231062B60B
:102C500012E0032200E005220A4CE25401F10803CD
:102C6000436000F00803002B0CBF8823C8230A88A8
:102C700043EA0243036062B65DF8044B704700BF4D
:102C80000080FF1F4493FF1FDC93FF1FEC93FF1F87
:102C90002DE9F84FA34CDFF8E092DFF8E0A2DFF86F
:102CA000E0B22578EDB215F0040F1DD09E4B1B78D5
:102CB00013F0FF0F16D09D4B1B7803F0FF022BB1D2
:102CC000531EDBB2994A137003B900BE984B1B78B0
:102CD00003F0FF0233B1531EDBB2954A13700BB9F8
:102CE00000F016FD0423237015F0080F00F0E482B5
:102CF00099F80030DBB21D0940F021828D4D9E080D
:102D000005EBC6035A6855F83630C3F38303013B1D
:102D10000C2B00F21082DFE813F0CB01CB010E0286
:102D20000E020E020E020E020E02E8010E020E024A
:102D30000E020D00804913680B6052684A607F4A9A
:102D400045F8362000227E490A607A490A618A6184
:102D500001217C4A11709BB240F28162934218D8E3
:102D6000B3F5D06F2ED2B3F5817F00F01E8106D867
:102D7000802B00F0C980822B00F0CC8066E140F20D
:102D80000232934200F02681B3F5A06F00F0628119
:102D90005CE142F22102934200F0868107D8B3F54C
:102DA000086F00F0AB80B3F5106F11D04EE142F226
:102DB0002122934200F0418142F22132934200F0FD
:102DC000498143E1604B5D68002D40F0188130E19E
:102DD000594B9A78544B1A70564D05F180062B6A60
:102DE00013F0800F03D0686A083800F035FB08350F
:102DF000B542F4D1DFF88C8100263746534AB058EB
:102E000028B1456800F028FB0DB12846F9E70023FA
:102E10004E4973504E4AB3504E4BF05828B1456856
:102E200000F01AFB0DB12846F9E700234949735019
:102E3000494AB35028F8023F484BFB5C023B032B46
:102E40000AD8DFE803F0020602060022434BDA55F7
:102E500002E00122414BDA5501370436102ECDD164
:102E600000223F4B1A7001253E4EDFF81C81314F86
:102E700005EB080313F8013C06F8043B13F0080FB8
:102E80002DD000F0C9FA48B1A90007EB451200F1B6
:102E900008035360344A47F8312007E0AB000022B2
:102EA00047F833202E4B1A7801321A7000F0B4FA2A
:102EB00058B1AB0043F0010307EBC30100F1080276
:102EC0004A601E4A47F8332009E0AB0043F0010393
:102ED000002247F83320224B1A7801321A70AA00D8
:102EE00042F00201002347F8313042F0030247F874
:102EF000323001351D4B9E42BAD11EE20A4B1B787F
:102F00001B4D2B700127AAE0194D00232B706B700D
:102F10000227A4E0084B9B88042B37D90F22154BBE
:102F20001A70C1E0802007401094FF1F9993FF1F83
:102F30001294FF1F0080FF1FFC93FF1FC80040007A
:102F40003093FF1F1194FF1F846E00008893FF1FB2
:102F50003493FF1FDC93FF1FEC93FF1F4493FF1F6D
:102F60000694FF1FC420074088004000D42007407B
:102F70000894FF1FC020074090200740942007407E
:102F8000982007402A96FF1F806E0000A04A00216B
:102F9000117051709F4A12F8233013F0020F5CD069
:102FA0009B4D01232B70022759E09B4B9B8803F01C
:102FB0007F03042B02DC984A52881AB10F22954BEA
:102FC0001A7071E0934A12F8231021F0020102F8FE
:102FD0002310B2E1904B9B8803F07F03042B02DCAB
:102FE0008D4A52881AB10F228A4B1A705CE0894AC6
:102FF00012F8231041F0020102F823109DE1864BE4
:103000005E889F88854BA3F10C02114633F80C0CA7
:10301000B04209D133F80A0CB84205D1360A032E62
:103020000CBF2F7817891AE00D690C330C32002D74
:10303000EBD10F22774B1A7036E0794B1A68794B37
:103040001A60754B9A78784B1A7076E10F22714BA3
:103050001A7029E000273D4601E002276C4D6E4BB7
:10306000DB889F4228BF1F46402F34BF3E46402684
:1030700028463146FFF728FD3544BF1B03D13F2EBC
:1030800000F2608110E0402F34BF3E4640262846C3
:103090003146FFF719FD3544BF1B01D13F2E03D93F
:1030A000624B1D60624B1F8001238AF8003042E0B2
:1030B000594B198842F22103994212D15D4BD81D18
:1030C00012F8011B03F8011F8342F9D15A4B1B6808
:1030D000862B02D10F22594B1A7000200146FFF7B0
:1030E000F3FC574B45F8363025E0504B1E68BEB117
:1030F0004F4FB7F80080B8F1400F34BF4546402528
:1031000030462946FFF7E0FCC5EB08039BB23B8045
:103110000BB9402D01D1354400E00025434B1D6023
:103120003D4B1B88B3F5A06F05D13B4B00225A7075
:103130009B788BF8003001238AF80030B9E0414ECB
:103140009F0806EBC708D8F80420A2F10800013D4B
:10315000EDB213F0080F47D000F07EF93A4B53F868
:1031600025304BB35A68384941F8252003F108024D
:10317000C8F80420354A525D032A12D8DFE802F06D
:1031800002060A0E0321314A51550AE002212F4A54
:10319000515506E005212D4A515502E004212B4AE4
:1031A000515518F0080F0CBF8822C8221B8842EA2C
:1031B000034346F837307CE0244B5B5D032B0BD890
:1031C000DFE803F0777702060022204B5A5570E0C3
:1031D00001221E4B5A556CE018F0080F0CBF02225A
:1031E00003221A4B5A5564E056F837301B0C22F86C
:1031F000083C002B55D0002322F8063C42F8043C42
:10320000134B53F825302BBB114B43F8250025E019
:103210000894FF1FC0200740FC93FF1F906E000022
:103220002C93FF1F3C96FF1F2094FF1F3093FF1F1E
:103230000494FF1F3396FF1F3496FF1F9993FF1FBF
:10324000C80040000080FF1FDC93FF1F4493FF1F56
:103250008893FF1F3F4B53F8253058603D4B43F890
:1032600025003D4B33F8151032F8082C0A4423F89A
:10327000152000F0D1F860B100F10803C8F804305F
:1032800018F0080F354B364A08BF134646F837305A
:103290000FE0002346F83730324B1A7801321A70AB
:1032A00007E018F0080F2D4B2D4A08BF134646F8CB
:1032B000373008232370F4E415F0010F22D02A4997
:1032C00002230B700022294B1A70294B24481860E6
:1032D000284C5C6098602848D8601A619A610D207B
:1032E000264B1870FF2326480370083803701830E7
:1032F0000270244A13709F22234B1A7001230B7013
:10330000BDE8F88F15F0800F05D00D221B4B1A7009
:103310008022403B1A7015F0020F06D0184B1A7825
:10332000D2B21A700222083B1A7015F0100F0ED09C
:103330001022164B1A70BDE8F88F00200146FFF7E7
:10334000C3FBB1E628460021FFF7BEFBACE6BDE8B3
:10335000F88F00BF3493FF1F2C96FF1FC80040005A
:10336000880040000694FF1F942007409893FF1F99
:103370000080FF1F4893FF1F9C93FF1FC020074042
:10338000882007408C200740842007408020074089
:1033900008B501F055FD00231B491A465A50C818BC
:1033A00042600833882BF9D1184B1A6842F4802206
:1033B0001A60154BC3F30721154A1170C3F3074177
:1033C000143211701B0E04321370FF23343A137041
:1033D00008321370783A137001238432137000217D
:1033E0006C3211707C3A137070220A4B1A704FF4D1
:1033F0000072A3F241331A60102203F1C04303F5B7
:10340000C8231A7008BD00BF0080FF1F348004402D
:103410009C20074049E400E072B60D4B1A68B2FAEE
:1034200082F30B2B02D962B6002070474FF00041A7
:10343000D94022EA010206490A6062B6054903EB57
:10344000C303DB00C8180022CA504260704700BFA7
:103450008887FF1F0084FF1F08B50F4BC31A0F4A50
:10346000A2FB03131B090B2B14D80D4A12783AB197
:103470000C4A127812F0FF0F02D0FFF77DFB08BD57
:1034800072B6094A4FF0004121FA03F3116819435B
:10349000116062B608BD00BF0084FF1F398EE3389B
:1034A0000694FF1F1094FF1F8887FF1F10B5134B52
:1034B0001B6853B9124B1B7813F0FF0F18D0032071
:1034C000FFF726FB0D4B1860A8B10C4B186843881A
:1034D0005A1C03441C7A03889A4206D3FFF7BCFFA8
:1034E0000022064B1A60204610BD4280204610BDC7
:1034F0004FF0FF3010BD4FF0FF3010BD1C94FF1F88
:103500001094FF1F08B50D4B1B6883B90C4B1B783B
:1035100013F0FF0F08D00320FFF7FAFA074B1860EB
:1035200028B94FF0FF3008BD4FF0FF3008BD034B06
:103530001B685A881344187A08BD00BF1C94FF1FEB
:103540001094FF1F044B9888044B1B681BB11A880A
:103550005B88D31A184470472C96FF1F1C94FF1FDA
:1035600010B50B4B1B7813F0FF0F0FD0094B1868E9
:1035700020B1FFF771FF0022064B1A60032420469A
:10358000FFF7C6FA10B1FFF767FFF8E710BD00BFFD
:103590001094FF1F1C94FF1F2DE9F04704460122E1
:1035A000374B1A700E46002964D0DFF8E080DFF850
:1035B000E0909A46334FD8F8003083BB99F800303A
:1035C00013F0FF0F06D100222D4B1A704FF0FF3081
:1035D000BDE8F0874AF2F9250420FFF7B7FA07287B
:1035E0000AD801238AF80030FFF716FFC8F8000058
:1035F000A8B900238AF80030013D01D03B7833B1EF
:103600000122204B1A704FF0FF30BDE8F08700F028
:10361000EBF999F8003013F0FF0FDDD1D3E7002369
:103620003B70D8F800104A88C2F14005AE4238BF5E
:10363000354602F108030B442A444A80761B3DB10B
:10364000254414F8012B03F8012BAC42F9D100E01A
:1036500025464B883F2B07D940230B800420FFF7DA
:10366000CFFA0023C8F800300522074B1A700EB1BC
:103670002C46A0E70020024B1870BDE8F08700BF81
:103680001394FF1F1894FF1F1294FF1F1494FF1F21
:103690001094FF1F00B583B002AB03F8010D18466C
:1036A0000121FFF779FF03B05DF804FB10B5144B5F
:1036B0001B7813F0FF0F21D00122124B1A70124B0E
:1036C000196851B10024114B1C704B880B800420E9
:1036D000FFF796FA0C4B1C600DE0FFF79DFE0146CC
:1036E00030B10022094B1A700420FFF789FA02E07A
:1036F0000122064B1A700022024B1A7010BD00BF47
:103700001094FF1F1394FF1F1494FF1F1294FF1FA8
:1037100008B50E4B1B7813F0FF0F16D10C4B196830
:1037200041B14B880B800420FFF76AFA0022084B56
:103730001A6008BDFFF770FE014618B10420FFF7BC
:103740005FFA08BD0122034B1A7008BD1394FF1FD6
:103750001494FF1F1294FF1F08B5FCF783FEFCF7BB
:1037600083FE00F041F9FAE7F8B506460F46144625
:1037700052B1002533681B68304617F8011B984783
:103780000544013CF6D100E000252846F8BD00BF05
:1037900000B583B0054B1B88ADF8043003685B6847
:1037A00001A90222984703B05DF804FB406E0000B7
:1037B000F0B58BB0164622B903681B68C9B29847AA
:1037C0002FE0012A08BF0A2621B930228DF82520D2
:1037D000212417E021243746B1FBF6F506FB151529
:1037E000EDB22246092D94BF30353735EDB20DF1DB
:1037F000280E724402F8245CB1FBF7F111B1013CD0
:10380000E4B2E9E733B1013CE4B20AAB23442D2230
:1038100003F8242C03685B6801A92144C4F1220247
:1038200098470BB0F0BD00BF08B50029BABF4942A8
:103830002D2300230A22FFF7BBFF08BDFFFFFFFF78
:103840002DE9F04F87B0814616461F469DF840800F
:10385000104619460022002302F046F928B107F16C
:1038600000431F464FF0010A01E04FF0000AB8F193
:10387000000F6ED04FF0000B0022414B3EA5D5E962
:1038800000451046194622462B4601F0BBFE024673
:103890000B460BF1010B5FFA8BF18845F1D82AE05A
:1038A0003E462046294652465B4601F0ABFE0446A2
:1038B0000D4602F041F9C0B2771CFFB206AB1E44C0
:1038C00000F1300306F8103C01F036FE02460B46CC
:1038D0002046294601F0E2FC04460D464745DFD16B
:1038E00001E04FF00108D9F800305B68484602A9B2
:1038F000424698473CE03046394601F0D1FC044648
:103900000D4602F019F9064601F006FE02460B4686
:103910002046294601F0C2FC04460D464846314681
:103920000A225346FFF744FF01902E238DF80830FA
:10393000B8F10F0F34BF43460F23002BD1D003F152
:1039400001085FFA88F801264FF0000ADFF834B06A
:10395000A7E7304639460022094B01F0A1FC02F0EE
:10396000EBF8014648460A225346FFF721FF019033
:10397000019807B0BDE8F08F000000A09999B93F09
:103980000000E03F0000244008B5FFF7DBFD08BD64
:1039900008B5FFF78BFD08BD08B5FFF7B3FD08BDFF
:1039A00008B5FFF783FE08BD08B5FFF7D9FD08BDD0
:1039B00008B50846FFF76EFE08BD00BF08B508460B
:1039C0001146FFF7E9FD08BD704700BF044B002218
:1039D0001A714FF47A7199601A73024A1A6070472B
:1039E0002494FF1F606E000008B50F4B1B78CBB905
:1039F00001220D4B1A70FFF7A5FD08B1FFF7E4FF98
:103A000000F0B0FA08B101F0F1FA00F05DFE08B183
:103A100001F08EFB01F02AF908B101F02BFC002225
:103A2000014B1A7008BD00BF3494FF1F30B400234F
:103A3000B0FBF2F402FB14041D46092C94BF303491
:103A40003734E4B2CC54B0FBF2F008B10133EFE705
:103A50000D4400226A70934207DD885CCC5C8C5474
:103A6000C8540132013B9A42F7DB084630BC70472C
:103A7000254B1A6842F480621A600023234A1370AF
:103A8000234A1370234A1370234A1370234A137076
:103A9000234B1B7813B1152B05D008E040F21332ED
:103AA000204B1A6003E040F213321F4B1A601F4B89
:103AB0001B78012B02D0052B05D008E04FF4517282
:103AC0001B4B1A6003E04FF451721A4B1A60C0F39B
:103AD0004432194B1A70C0F347125A7000F01F009D
:103AE000987204229A700221D9745A7588221A7425
:103AF0003C22DA704022114B1A704FF40052A3F2AC
:103B000029331A60704700BF34800440C494FF1FFB
:103B10003D94FF1FCC94FF1FC594FF1F3C94FF1FD3
:103B20008094FF1F40A0044018C004408C87FF1FF2
:103B300044A004401CC0044000A006402DE400E066
:103B4000164B9B7803F0EC0300F00302134310F0D4
:103B5000040F18BF43F01003104A937000F00F03D6
:103B6000042B04D11346927942F040029A710B4B18
:103B70005A7902F0EF0210F0100F18BF42F0100255
:103B8000064B5A719B7903F0EF0310F0200F18BF1A
:103B900043F01003014A9371704700BF00A0064034
:103BA00010B5144B1B6813F4806F21D0124B1B7897
:103BB00013F0FF0F06D0104CFFF716FF237813F019
:103BC000FF0FF9D14FF400520C4B1A6000230C4A3E
:103BD000D37040F203120B490A6004310A600A4AAA
:103BE00013700A4A13700A4B1B680BB101221A703A
:103BF00010BD00BF348004403C94FF1F84E100E00E
:103C000000A0064040A00440C494FF1F3D94FF1F45
:103C10003894FF1F10B50446094A137813F0FF0FBC
:103C2000FBD120460121FEF76BFE20460021FEF766
:103C300043FE044B53F83420034B1A6010BD00BF01
:103C40003C94FF1F306D0000C894FF1F10B40C4659
:103C500009B140F08000184B1B78984228D0174AD1
:103C6000126812F4806F21D003F07F03012B02D081
:103C7000052B04D006E00022114B1A6002E000225E
:103C8000104B1A60002C0CBF4422602200F07F030E
:103C9000012B02D0052B05D008E042F44072084BFE
:103CA0001A6003E042F44072064B1A60024B18702F
:103CB0005DF8044B704700BF8C87FF1F34800440C1
:103CC00044A004401CC00440114B1B7898421ED0F5
:103CD000104A126812F4806F17D013B1152B04D05C
:103CE00006E000220C4B1A6002E000220B4B1A6027
:103CF00010B1152805D008E040F21332064B1A60C7
:103D000003E040F21332054B1A60014B1870704704
:103D10008094FF1F3480044040A0044018C0044039
:103D200010B50D4B1B6813F4806F12D021280CD8EE
:103D30000A4C0B4B53F8303023600121FEF7E0FDB5
:103D4000236800221A70012010BD0020034B186068
:103D500010BD002010BD00BF348004403894FF1F08
:103D6000306D0000114B1B6813F4806F1BD01228BC
:103D700004D140F202320E4B1A600DE0142804D137
:103D800040F202320B4B1A6006E00B4B5A7B02F0FA
:103D9000FE025A7300207047074B5A7B42F0010223
:103DA0005A73012070470020704700BF34800440E0
:103DB0000CA0044014C0044000A006402DE9F041CE
:103DC00007461F4B1B6813F4806F37D01D4B1B68D1
:103DD0000BB101221A701C4B1C780134402C28BFF7
:103DE00000241A4D1A4EDFF86C8017E0FEF734FD00
:103DF00040280FDC337913F0800F0FD02B7801337C
:103E0000402B28BF002318F80320D2B2F271DBB296
:103E10002B7003E0FF2801DDFFF7E6FD2B78DBB216
:103E20009C42E3D0FFB20B4B1F5501220A4B1A7084
:103E3000E4B2054B1C70BC22054BDA70BDE8F08182
:103E400034800440C894FF1FCC94FF1FC594FF1F0B
:103E500000A006404094FF1F3C94FF1F2DE9F84F3F
:103E60000746284B1B6813F4806F49D0264B1B680C
:103E70000BB101221A7007EB010B5F453DD2DFF851
:103E80009890224EDFF88C80DFF890A099F80040DF
:103E90000134402C28BF00243578EDB2A54220D152
:103EA000BC2388F80330FEF7D7FC402811DC98F8D3
:103EB000043013F0800F10D033780133402B28BF2B
:103EC00000231AF80320D2B288F80720DBB233703F
:103ED00003E0FF2801DDFFF787FD3378DBB29D4269
:103EE000E1D017F8013B0AF804300122084B1A70A0
:103EF000E4B289F800405F45C8D1BC22054BDA70B6
:103F0000BDE8F88F34800440C894FF1FC594FF1F9C
:103F10003C94FF1F00A00640CC94FF1F4094FF1F5D
:103F200010B5064B1B7813F0FF0F06D0034CFFF7BC
:103F30005BFD237813F0FF0FF9D110BD3C94FF1FF8
:103F4000064B1B78DBB2064A1278D2B293422CBFE2
:103F50003F3202F1FF32D01A704700BFCC94FF1FEE
:103F6000C594FF1F054B1878C0B2054B1B78DBB218
:103F7000984238BF4030C01A704700BFC494FF1F3A
:103F80003D94FF1F10B4184B1A78D2B2174B1B7810
:103F9000DBB29A4218D001333F2B18D81449C85CC1
:103FA000C0B2DCB211490C7012490968C9B19A4219
:103FB00003D300E00023D31A01E04032D31A1A2BB6
:103FC0000FDC00230B700CE04FF0FF3009E0084BD2
:103FD0001878C0B20021054B1970064B19680029EA
:103FE000E8D15DF8044B7047C494FF1F3D94FF1F58
:103FF0008494FF1F3894FF1F094B1A78D2B2094BE3
:104000001B78DBB29A4207D00133402B28BF002334
:10401000054AD05CC0B270474FF0FF30704700BF18
:10402000C494FF1F3D94FF1F8494FF1F0D4B1B681A
:1040300013F4806F14D00C4BDA7802F0CB02DA70F4
:1040400040225A74DA7842F03402DA70074B1A7858
:10405000D2B2074B1A70074B1B680BB100221A70C3
:10406000704700BF3480044000A006403D94FF1F0D
:10407000C494FF1F3894FF1F70B43D4B1B7913F09D
:10408000300F33D072B63A4B9B7D03F0FF022BB951
:10409000374BDA7940225A7462B627E062B6354B64
:1040A0001978C9B2344B1C78E4B2314D334EEB79F8
:1040B000D8B24B1C402B28BF0023A3421CBFF05496
:1040C0001946531E13F0FF02F1D1CAB2294B1A70E0
:1040D0002B4B1B6853B1A1422EBFC4EB0101C4F1AD
:1040E000400409192729C4BF01221A70204BDA782D
:1040F000D2B212F0800F27D01B7913F0800F23D09B
:10410000204B1C78E4B2204B1B78DBB29C4210D0D1
:1041100017491E4D01E0A3420BD00133402B28BFAD
:1041200000230879E85CC0B2C871087DC0B20728D6
:10413000F1D9DBB214490B700D4B1B7913F0800FD2
:1041400002D07C210A4BD97012F0400F0ED0084BE0
:104150001B7913F0400F09D000220D4B1A700D4B44
:104160001B6803B11A703C22014BDA7070BC7047B7
:1041700000A00640C494FF1F3D94FF1F8494FF1FBE
:104180003894FF1FCC94FF1FC594FF1F4094FF1F5E
:104190003C94FF1FC894FF1F254B1A6842F400622D
:1041A0001A600023234A1370234A1370234A1370A2
:1041B000234A1370234A1370234B1B78092B02D018
:1041C0001A2B05D008E040F21332204B1A6003E0AE
:1041D00040F213321E4B1A601E4B1B780A2B02D082
:1041E0001F2B05D008E04FF451721B4B1A6003E0FF
:1041F0004FF45172194B1A60C0F34432184B1A70C5
:10420000C0F347125A7000F01F00987204229A708F
:104210000221D9745A7588221A743C22DA7040221D
:10422000104B1A704FF40042A3F22B331A60704700
:10423000348004404095FF1FD594FF1F4895FF1F11
:104240004195FF1FD494FF1F8D87FF1F0CB00440C2
:1042500004D004408E87FF1F10B0044000D00440FB
:1042600000B006402FE400E0164B9B7803F0EC030F
:1042700000F00302134310F0040F18BF43F01003C3
:10428000104A937000F00F03042B04D11346927967
:1042900042F040029A710B4B5A7902F0EF0210F093
:1042A000100F18BF42F01002064B5A719B7903F0B1
:1042B000EF0310F0200F18BF43F01003014A937171
:1042C000704700BF00B0064010B5224B1B6813F4C6
:1042D000006F3ED0204B1B7813F0FF0F06D01E4C12
:1042E000FFF782FB237813F0FF0FF9D14FF4004260
:1042F0001A4B1A6000221A4BDA701A4B1B78092BE2
:1043000002D01A2B05D008E040F20312164B1A60B7
:1043100003E040F20312154B1A60154B1B7803F0B3
:104320007F030A2B02D01F2B05D008E040F20312B6
:10433000104B1A6003E040F203120F4B1A60002387
:104340000E4A13700E4A13700E4B1B680BB10122FC
:104350001A7010BD34800440D494FF1F84E100E043
:1043600000B006408D87FF1F0CB0044004D004400D
:104370008E87FF1F10B0044000D004404095FF1FFF
:10438000D594FF1FD094FF1F10B50446094A137837
:1043900013F0FF0FFBD120460121FEF7B1FA2046B2
:1043A0000021FEF789FA044B53F83420034B1A60BE
:1043B00010BD00BFD494FF1F306D00004495FF1F57
:1043C00010B40C4609B140F08000184B1B7898429D
:1043D00028D0174A126812F4006F21D003F07F032F
:1043E0000A2B02D01F2B04D006E00022114B1A60CA
:1043F00002E00022104B1A60002C0CBF4422602205
:1044000000F07F030A2B02D01F2B05D008E042F4F6
:104410004072084B1A6003E042F44072064B1A6087
:10442000024B18705DF8044B704700BF8E87FF1F6A
:104430003480044010B0044000D00440124B1B787C
:10444000984220D0114A126812F4006F19D0092B3B
:1044500002D01A2B04D006E000220D4B1A6002E0B5
:1044600000220C4B1A60092802D01A2805D008E057
:1044700040F21332064B1A6003E040F21332054B50
:104480001A60014B187070478D87FF1F34800440FD
:104490000CB0044004D0044010B50D4B1B6813F45D
:1044A000006F12D021280CD80A4C0B4B53F8303037
:1044B00023600121FEF724FA236800221A700120EC
:1044C00010BD0020034B186010BD002010BD00BFC0
:1044D00034800440D094FF1F306D00000D4B1B68EA
:1044E00013F4006F13D017280AD140F202320A4B9E
:1044F0001A600A4B5A7B42F001025A73012070473E
:10450000064B5A7B02F0FE025A73002070470020CF
:10451000704700BF3480044008B0044000B006403B
:104520002DE9F04107461F4B1B6813F4006F37D08D
:104530001D4B1B680BB101221A701C4B1C780134F7
:10454000282C28BF00241A4D1A4EDFF86C8017E083
:10455000FEF782F940280FDC337913F0800F0FD07B
:104560002B780133282B28BF002318F80320D2B260
:10457000F271DBB22B7003E0FF2801DDFFF734FAA4
:104580002B78DBB29C42E3D0FFB20B4B1F550122CC
:104590000A4B1A70E4B2054B1C70BC22054BDA7052
:1045A000BDE8F081348004404495FF1F4895FF1F0B
:1045B0004195FF1F00B00640D894FF1FD494FF1F01
:1045C0002DE9F84F0746284B1B6813F4006F49D0BC
:1045D000264B1B680BB101221A7007EB010B5F45DC
:1045E0003DD2DFF89890224EDFF88C80DFF890A063
:1045F00099F800400134282C28BF00243578EDB20A
:10460000A54220D1BC2388F80330FEF725F94028C5
:1046100011DC98F8043013F0800F10D03378013398
:10462000282B28BF00231AF80320D2B288F80720CD
:10463000DBB2337003E0FF2801DDFFF7D5F93378F3
:10464000DBB29D42E1D017F8013B0AF804300122A9
:10465000084B1A70E4B289F800405F45C8D1BC220B
:10466000054BDA70BDE8F88F348004404495FF1F95
:104670004195FF1FD494FF1F00B006404895FF1FCF
:10468000D894FF1F10B5064B1B7813F0FF0F06D010
:10469000034CFFF7A9F9237813F0FF0FF9D110BDF0
:1046A000D494FF1F064B1B78DBB2064A1278D2B2B5
:1046B00093422CBF273202F1FF32D01A704700BF5D
:1046C0004895FF1F4195FF1F054B1878C0B2054B59
:1046D0001B78DBB2984238BF4030C01A704700BF29
:1046E0004095FF1FD594FF1F10B4184B1A78D2B213
:1046F000174B1B78DBB29A4218D001333F2B18D8E6
:104700001449C85CC0B2DCB211490C701249096886
:10471000C9B19A4203D300E00023D31A01E040322A
:10472000D31A1A2B0FDC00230B700CE04FF0FF3074
:1047300009E0084B1878C0B20021054B1970064BF0
:1047400019680029E8D15DF8044B70474095FF1FB8
:10475000D594FF1F0095FF1FD094FF1F094B1A78B7
:10476000D2B2094B1B78DBB29A4207D00133402BFF
:1047700028BF0023054AD05CC0B270474FF0FF301D
:10478000704700BF4095FF1FD594FF1F0095FF1F86
:104790000D4B1B6813F4006F14D00C4BDA7802F049
:1047A000CB02DA7040225A74DA7842F03402DA70BE
:1047B000074B1A78D2B2074B1A70074B1B680BB124
:1047C00000221A70704700BF3480044000B00640D9
:1047D000D594FF1F4095FF1FD094FF1F70B43D4B31
:1047E0001B7913F0300F33D072B63A4B9B7D03F038
:1047F000FF022BB9374BDA7940225A7462B627E0B0
:1048000062B6354B1978C9B2344B1C78E4B2314DDD
:10481000334EEB79D8B24B1C402B28BF0023A34268
:104820001CBFF0541946531E13F0FF02F1D1CAB257
:10483000294B1A702B4B1B6853B1A1422EBFC4EBFE
:104840000101C4F1400409192729C4BF01221A70CB
:10485000204BDA78D2B212F0800F27D01B7913F0F8
:10486000800F23D0204B1C78E4B2204B1B78DBB2A6
:104870009C4210D017491E4D01E0A3420BD00133DA
:10488000282B28BF00230879E85CC0B2C871087DD6
:10489000C0B20728F1D9DBB214490B700D4B1B795C
:1048A00013F0800F02D07C210A4BD97012F0400F18
:1048B0000ED0084B1B7913F0400F09D000220D4B8E
:1048C0001A700D4B1B6803B11A703C22014BDA7051
:1048D00070BC704700B006404095FF1FD594FF1F85
:1048E0000095FF1FD094FF1F4895FF1F4195FF1FA4
:1048F000D894FF1FD494FF1F4495FF1F174B1A68CD
:1049000042F480521A600023154A1370154A13703E
:10491000154A1370154A1370154A137040F213317B
:10492000144A11604FF4517104321160C0F34431E4
:10493000114A1170C0F34711517000F01F009072BE
:10494000937013742C23D37040220C4B1A704FF4C5
:104950000032A3F22D331A60704700BF3480044048
:10496000BC95FF1F5195FF1FC495FF1FBD95FF1FED
:104970005095FF1F08C0044000C0064031E400E02D
:10498000164B9B7803F0EC0300F00302134310F086
:10499000040F18BF43F01003104A937000F00F0388
:1049A000042B04D11346927942F040029A710B4BCA
:1049B0005A7902F0EF0210F0100F18BF42F0100207
:1049C000064B5A719B7903F0EF0310F0200F18BFCC
:1049D00043F01003014A9371704700BF00C00640C6
:1049E00010B5144B1B6813F4805F21D0124B1B7859
:1049F00013F0FF0F06D0104CFEF7F6FF237813F0EC
:104A0000FF0FF9D14FF400320C4B1A6000230C4A0F
:104A1000D37040F203120B490A6004310A600A4A5B
:104A200013700A4A13700A4B1B680BB101221A70EB
:104A300010BD00BF348004405095FF1F84E100E0AA
:104A400000C0064008C00440BC95FF1F5195FF1FE1
:104A50004C95FF1F10B50446094A137813F0FF0F59
:104A6000FBD120460121FDF74BFF20460021FDF739
:104A700023FF044B53F83420034B1A6010BD00BFD2
:104A80005095FF1F306D0000C095FF1F10B40C46FD
:104A900009B140F08000104B1B78984219D00F4AA2
:104AA000126812F4805F12D003F07F03082B02D14A
:104AB00000220B4B1A60002C0CBF4422602200F035
:104AC0007F03082B03D142F44072054B1A60024B5E
:104AD00018705DF8044B70478F87FF1F34800440C7
:104AE0000CC00440704700BF10B50D4B1B6813F499
:104AF000805F12D021280CD80A4C0B4B53F8303071
:104B000023600121FDF7FCFE236800221A700120BA
:104B100010BD0020034B186010BD002010BD00BF69
:104B2000348004404C95FF1F306D00000D4B1B6816
:104B300013F4805F13D00E280AD140F202320A4BE0
:104B40001A600A4B5A7B42F001025A7301207047E7
:104B5000064B5A7B02F0FE025A7300207047002079
:104B6000704700BF3480044004C0044000C00640C9
:104B70002DE9F04107461F4B1B6813F4805F37D0C7
:104B80001D4B1B680BB101221A701C4B1C780134A1
:104B9000282C28BF00241A4D1A4EDFF86C8017E02D
:104BA000FDF75AFE40280FDC337913F0800F0FD049
:104BB0002B780133282B28BF002318F80320D2B20A
:104BC000F271DBB22B7003E0FF2801DDFEF70CFF72
:104BD0002B78DBB29C42E3D0FFB20B4B1F55012276
:104BE0000A4B1A70E4B2054B1C70AC22054BDA700C
:104BF000BDE8F08134800440C095FF1FC495FF1FBD
:104C0000BD95FF1F00C006405495FF1F5095FF1F24
:104C100038B505460C4629B115F8010BFFF7A8FF7A
:104C2000013CF9D138BD00BF10B5064B1B7813F01D
:104C3000FF0F06D0034CFEF7D7FE237813F0FF0FCB
:104C4000F9D110BD5095FF1F064B1B78DBB2064A09
:104C50001278D2B293422CBF273202F1FF32D01A1F
:104C6000704700BFC495FF1FBD95FF1F054B187807
:104C7000C0B2054B1B78DBB2984238BF4030C01A37
:104C8000704700BFBC95FF1F5195FF1F10B4184B14
:104C90001A78D2B2174B1B78DBB29A4218D0013384
:104CA0003F2B18D81449C85CC0B2DCB211490C7053
:104CB00012490968C9B19A4203D300E00023D31A0C
:104CC00001E04032D31A1A2B0FDC00230B700CE0EA
:104CD0004FF0FF3009E0084B1878C0B20021054BB7
:104CE0001970064B19680029E8D15DF8044B70472C
:104CF000BC95FF1F5195FF1F7C95FF1F4C95FF1F13
:104D0000094B1A78D2B2094B1B78DBB29A4207D012
:104D10000133402B28BF0023054AD05CC0B2704746
:104D20004FF0FF30704700BFBC95FF1F5195FF1F2C
:104D30007C95FF1F054B1A78D2B2054B1A70054BB4
:104D40001B680BB100221A70704700BF5195FF1FFE
:104D5000BC95FF1F4C95FF1F2F4B1B7913F0200FA5
:104D600023D02D4BDB79D9B22C4B1B780133402B50
:104D700028BF00232A4A1278D2B29A4204D0294A84
:104D8000D154D9B2254A1170274A116869B1274A0E
:104D90001278D2B293422EBFC2EB0303C2F140029B
:104DA0009B18272BC4BF01230B701B4BDB78DBB296
:104DB00013F0800F1CD0184A127912F0800F17D010
:104DC0001B4A1178C9B2194A1278D2B2914203D162
:104DD0006C21114AD1700BE00132282A28BF002231
:104DE0001449885CC0B20C49C871D2B20F490A702C
:104DF00013F0400F0ED0084B1B7913F0400F09D071
:104E000000220D4B1A700D4B1B6803B11A702C2237
:104E1000014BDA70704700BF00C00640BC95FF1F11
:104E20005195FF1F7C95FF1F4C95FF1FBD95FF1FE0
:104E3000C495FF1F5495FF1F5095FF1FC095FF1F7E
:104E400000B585B072B61B4B70221A7041211A4A08
:104E500011700F21013A117080221A701A461378CE
:104E600013F0800FFBD0154B186862B6144B9842B4
:104E70009CBF00EB8000400001A90A22FEF7D6FD8E
:104E80009DF804307BB908E001A9595C31B19180EB
:104E9000023201330A2BF7D100E0002301335B001B
:104EA000084A137003E0074A53800123ECE705B07A
:104EB0005DF804FB000002400700024008000240C9
:104EC0007F9698001C88FF1F08B503681B68C9B24D
:104ED000984708BD08B503681B68C9B2984708BD64
:104EE00008B503681B68C9B2984708BD08B50368D0
:104EF0001B68C9B2984708BD08B54B0803F1376075
:104F000000F5D830B0FBF1F0FEF7B2FD08BD00BFF0
:104F100010B514464B0803F1376000F5D830B0FBEC
:104F2000F1F0FEF7A5FD2046FEF70AFE10BD00BF1A
:104F300008B5FEF735FE08BD08B50846FEF76AFE5F
:104F400008BD00BF08B50846FEF7BEFE08BD00BF9D
:104F500008B508461146FEF779FE08BD08B50846B3
:104F6000FEF7DEFE003018BF012008BD08B5084678
:104F7000FEF7F8FE003018BF012008BD08B5FEF7A7
:104F8000F1FF08BD08B5FFF737F808BD08B5FEF713
:104F9000F9FF08BD08B5FEF7C3FF08BD08B5FFF768
:104FA00045F808BD08B5FEF7CBFF08BD08B50846B3
:104FB000FEF704FF012008BD08B50846FEF7FEFE17
:104FC000012008BD10B5144608461146FEF746FFFD
:104FD000204610BD38B50D46084601F00DFC0446CC
:104FE00028462146FEF73AFF204638BD704700BFED
:104FF000044B00221A714FF47A7199601A73024AB5
:105000001A607047C895FF1FE06E000008B503687E
:105010001B68C9B2984708BD08B503681B68C9B2C8
:10502000984708BD08B503681B68C9B2984708BD12
:1050300008B503681B68C9B2984708BD08B54B0896
:1050400003F1376000F5D830B0FBF1F0FFF7A4F8BA
:1050500008BD00BF10B514464B0803F1376000F5DA
:10506000D830B0FBF1F0FFF797F82046FFF7FCF8D7
:1050700010BD00BF08B5FFF727F908BD08B5084601
:10508000FFF782F908BD00BF08B50846FFF7D6F95B
:1050900008BD00BF08B508461146FFF791F908BDE5
:1050A00008B50846FFF7F8F9003018BF012008BD21
:1050B00008B50846FFF712FA003018BF012008BDF6
:1050C00008B5FFF701FB08BD08B5FFF747FB08BDB2
:1050D00008B5FFF709FB08BD08B5FFF7D3FA08BD0F
:1050E00008B5FFF755FB08BD08B5FFF7DBFA08BDAB
:1050F00008B50846FFF714FA012008BD08B50846B0
:10510000FFF70EFA012008BD10B5144608461146F7
:10511000FFF756FA204610BD38B50D46084601F097
:105120006BFB044628462146FFF74AFA204638BD65
:10513000704700BF044B00221A714FF47A719960D6
:105140001A73024A1A607047D895FF1F406F00001B
:1051500008B503681B68C9B2984708BD08B503685D
:105160001B68C9B2984708BD08B503681B68C9B277
:10517000984708BD08B503681B68C9B2984708BDC1
:1051800008B54B0803F1B76000F55840B0FBF1F0EB
:10519000FFF7B4FB08BD00BF10B514464B0803F180
:1051A000B76000F55840B0FBF1F0FFF7A7FB2046D1
:1051B000FFF7E6FB10BD00BF08B5FFF711FC08BD07
:1051C00008B50846FFF746FC08BD00BF08B508460D
:1051D000FFF788FC08BD00BF08B508461146FFF779
:1051E00055FC08BD08B50846FFF77EFC003018BF27
:1051F000012008BD08B50846FFF798FC003018BF2D
:10520000012008BD08B5FFF731FD08BD08B5FFF75F
:1052100077FD08BD08B5FFF739FD08BD08B5FFF7F4
:1052200003FD08BD08B5FFF785FD08BD08B5FFF70C
:105230000BFD08BD08B50846FFF79AFC012008BD24
:1052400008B50846FFF794FC012008BD10B51446C8
:1052500008461146FFF7DCFC204610BD38B50D4668
:10526000084601F0C9FA044628462146FFF7D0FC5B
:10527000204638BD704700BF044B00221A714FF41E
:105280007A7199601A73024A1A607047E895FF1F95
:10529000A06F000081F0004102E000BF83F00043F6
:1052A00030B54FEA41044FEA430594EA050F08BFC1
:1052B00090EA020F1FBF54EA000C55EA020C7FEA85
:1052C000645C7FEA655C00F0E2804FEA5454D4EB02
:1052D0005555B8BF6D420CDD2C4480EA020281EACC
:1052E000030382EA000083EA010180EA020281EA04
:1052F0000303362D88BF30BD11F0004F4FEA013156
:105300004FF4801C4CEA113102D0404261EB410164
:1053100013F0004F4FEA03334CEA133302D05242EA
:1053200063EB430394EA050F00F0A780A4F10104A6
:10533000D5F1200E0DDB02FA0EFC22FA05F28018E0
:1053400041F1000103FA0EF2801843FA05F35941C6
:105350000EE0A5F120050EF1200E012A03FA0EFC45
:1053600028BF4CF0020C43FA05F3C01851EBE3716F
:1053700001F0004507D54FF0000EDCF1000C7EEB8C
:1053800000006EEB0101B1F5801F1BD3B1F5001FCA
:105390000CD349085FEA30004FEA3C0C04F10104E9
:1053A0004FEA445212F5800F80F09A80BCF1004F12
:1053B00008BF5FEA500C50F1000041EB045141EA94
:1053C000050130BD5FEA4C0C404141EB010111F495
:1053D000801FA4F10104E9D191F0000F04BF014640
:1053E0000020B1FA81F308BF2033A3F10B03B3F11E
:1053F00020020CDA0C3208DD02F1140CC2F10C02AE
:1054000001FA0CF021FA02F10CE002F11402D8BF0B
:10541000C2F1200C01FA02F120FA0CFCDCBF41EAD7
:105420000C019040E41AA2BF01EB0451294330BDA6
:105430006FEA04041F3C1CDA0C340EDC04F1140483
:10544000C4F1200220FA04F001FA02F340EA03005A
:1054500021FA04F345EA030130BDC4F10C04C4F1A0
:10546000200220FA02F001FA04F340EA0300294680
:1054700030BD21FA04F0294630BD94F0000F83F4CA
:10548000801306BF81F480110134013D4EE77FEAAD
:10549000645C18BF7FEA655C29D094EA050F08BFF9
:1054A00090EA020F05D054EA000C04BF19461046DA
:1054B00030BD91EA030F1EBF0021002030BD5FEA1E
:1054C000545C05D14000494128BF41F0004130BD46
:1054D00014F580043CBF01F5801130BD01F000459A
:1054E00045F0FE4141F470014FF0000030BD7FEA0D
:1054F000645C1ABF194610467FEA655C1CBF0B4608
:10550000024650EA013406BF52EA033591EA030F1E
:1055100041F4002130BD00BF90F0000F04BF002116
:10552000704730B54FF4806404F132044FF0000549
:105530004FF0000150E700BF90F0000F04BF0021C2
:10554000704730B54FF4806404F1320410F0004528
:1055500048BF40424FF000013EE700BF42004FEA23
:10556000E2014FEA31014FEA02701FBF12F07F43A0
:1055700093F07F4F81F06051704792F0000F14BF9D
:1055800093F07F4F704730B54FF4607401F00045E1
:1055900021F0004120E700BF50EA010208BF704738
:1055A00030B54FF000050AE050EA010208BF70472D
:1055B00030B511F0004502D5404261EB41014FF496
:1055C000806404F132045FEA915C3FF4DCAE4FF09A
:1055D00003025FEADC0C18BF03325FEADC0C18BF81
:1055E000033202EBDC02C2F1200300FA03FC20FAD2
:1055F00002F001FA03FE40EA0E0021FA02F114441F
:10560000C1E600BF70B54FF0FF0C4CF4E06C1CEA33
:1056100011541DBF1CEA135594EA0C0F95EA0C0FA8
:1056200000F0DEF82C4481EA030621EA4C5123EA1B
:105630004C5350EA013518BF52EA033541F480114A
:1056400043F4801338D0A0FB02CE4FF00005E1FBFD
:1056500002E506F00042E0FB03E54FF00006E1FB47
:1056600003569CF0000F18BF4EF0010EA4F1FF048A
:10567000B6F5007F64F5407404D25FEA4E0E6D41CA
:1056800046EB060642EAC62141EA55514FEAC520DB
:1056900040EA5E504FEACE2EB4F1FD0C88BFBCF557
:1056A000E06F1ED8BEF1004F08BF5FEA500E50F108
:1056B000000041EB045170BD06F0004646EA0101CE
:1056C00040EA020081EA0301B4EB5C04C2BFD4EB00
:1056D0000C0541EA045170BD41F480114FF0000EF9
:1056E000013C00F3AB8014F1360FDEBF002001F067
:1056F000004170BDC4F10004203C35DA0C341BDCE1
:1057000004F11404C4F1200500FA05F320FA04F0B2
:1057100001FA05F240EA020001F0004221F00041E6
:1057200010EBD37021FA04F642EB06015EEA430E59
:1057300008BF20EAD37070BDC4F10C04C4F1200589
:1057400000FA04F320FA05F001FA04F240EA02003C
:1057500001F0004110EBD37041F100015EEA430E0D
:1057600008BF20EAD37070BDC4F1200500FA05F22D
:105770004EEA020E20FA04F301FA05F243EA0203AC
:1057800021FA04F001F0004121FA04F220EA0200BB
:1057900000EBD3705EEA430E08BF20EAD37070BD01
:1057A00094F0000F0FD101F00046400041EB0101E1
:1057B00011F4801F08BF013CF7D041EA060195F0C3
:1057C000000F18BF704703F00046520043EB03037D
:1057D00013F4801F08BF013DF7D043EA060370476A
:1057E00094EA0C0F0CEA135518BF95EA0C0F0CD075
:1057F00050EA410618BF52EA4306D1D181EA0301BB
:1058000001F000414FF0000070BD50EA410606BFB4
:105810001046194652EA430619D094EA0C0F02D1F9
:1058200050EA013613D195EA0C0F05D152EA03363E
:105830001CBF104619460AD181EA030101F000415C
:1058400041F0FE4141F470014FF0000070BD41F0A5
:10585000FE4141F4780170BD70B54FF0FF0C4CF47F
:10586000E06C1CEA11541DBF1CEA135594EA0C0F9E
:1058700095EA0C0F00F0A7F8A4EB050481EA030EEB
:1058800052EA03354FEA013100F088804FEA0333D2
:105890004FF0805545EA131343EA12634FEA0222A0
:1058A00045EA111545EA10654FEA00260EF0004161
:1058B0009D4208BF964244F1FD0404F5407402D2B3
:1058C0005B084FEA3202B61A65EB03055B084FEA44
:1058D00032024FF480104FF4002CB6EB020E75EB41
:1058E000030E22BFB61A754640EA0C005B084FEA69
:1058F0003202B6EB020E75EB030E22BFB61A7546E6
:1059000040EA5C005B084FEA3202B6EB020E75EB30
:10591000030E22BFB61A754640EA9C005B084FEAA8
:105920003202B6EB020E75EB030E22BFB61A7546B5
:1059300040EADC0055EA060E18D04FEA051545EAA4
:1059400016754FEA06164FEAC30343EA52734FEA4D
:10595000C2025FEA1C1CC0D111F4801F0BD141EAC6
:1059600000014FF000004FF0004CB6E711F4801F2B
:1059700004BF01430020B4F1FD0C88BFBCF5E06F0B
:105980003FF6AFAEB5EB030C04BFB6EB020C5FEA1B
:10599000500C50F1000041EB045170BD0EF0004E70
:1059A0004EEA113114EB5C04C2BFD4EB0C0541EAA2
:1059B000045170BD41F480114FF0000E013C90E69F
:1059C00045EA060E8DE60CEA135594EA0C0F08BF63
:1059D00095EA0C0F3FF43BAF94EA0C0F0AD150EA62
:1059E00001347FF434AF95EA0C0F7FF425AF1046F5
:1059F00019462CE795EA0C0F06D152EA03353FF41D
:105A0000FDAE1046194622E750EA410618BF52EA99
:105A100043067FF4C5AE50EA41047FF40DAF52EA6D
:105A200043057FF4EBAE12E74FF0FF3C06E000BF0A
:105A30004FF0010C02E000BF4FF0010C4DF804CD17
:105A40004FEA410C7FEA6C5C4FEA430C18BF7FEAD7
:105A50006C5C1BD001B050EA410C0CBF52EA430C05
:105A600091EA030F02BF90EA020F0020704710F185
:105A7000000F91EA030F58BF994208BF90422CBF14
:105A8000D8176FEAE37040F0010070474FEA410C0D
:105A90007FEA6C5C02D150EA013C07D14FEA430C2B
:105AA0007FEA6C5CD6D152EA033CD3D05DF8040B9C
:105AB000704700BF8446104662468C4619466346CE
:105AC00000E000BF01B5FFF7B7FF002848BF10F1A5
:105AD000000F01BD4DF808EDFFF7F4FF0CBF0120EA
